:020000040800F2
:10000000E80400209D010008A50800089D080008DC
:10001000A1080008C1070008CF0E0008000000007A
:100020000000000000000000000000006D0A000851
:10003000C50700080000000021090008850B000822
:10004000B7010008B7010008B7010008B7010008B0
:10005000B7010008B7010008B7010008B7010008A0
:10006000B7010008B7010008B7010008B701000890
:10007000B7010008B7010008B7010008B701000880
:10008000B7010008B7010008B7010008B701000870
:10009000B7010008B7010008B7010008B701000860
:1000A000B7010008B7010008B7010008B701000850
:1000B000B7010008B7010008B7010008B701000840
:1000C000B7010008B7010008B7010008B701000830
:1000D000B7010008B10C0008B7010008B70100081B
:1000E000B7010008B7010008B7010008B701000810
:1000F000B7010008B7010008B7010008B701000800
:10010000B7010008B7010008B7010008B7010008EF
:10011000B7010008B7010008B7010008B7010008DF
:10012000B7010008B7010008B7010008B7010008CF
:10013000B7010008B7010008B7010008B7010008BF
:10014000B7010008B7010008B7010008B7010008AF
:10015000B7010008B7010008B7010008B70100089F
:10016000B7010008B7010008B7010008B70100088F
:10017000B7010008B7010008B7010008B70100087F
:10018000B7010008B7010008DFF80CD000F0F6FA5C
:100190000048004785180008E8040020064880470A
:1001A00006480047FEE7FEE7FEE7FEE7FEE7FEE75C
:1001B000FEE7FEE7FEE7FEE7890B0008890100087D
:1001C0002DE9FE4F804681EA0300C00F0C460090E7
:1001D00021F0004123F00045B8EB0200A94105D20F
:1001E0004046214690461C460B46024623F00040FE
:1001F000104347D0270DC7F30A00C3F30A510290FA
:10020000401A019040286BDAC3F3130040F4801BBE
:100210000098924620B10023D2EB030A63EB0B0B4C
:1002200001985946C0F14002504600F0E6F80646F3
:100230000D4650465946019A00F0EEF810EB0800C2
:100240006141002487EA115284EAE7731A4340D0DF
:10025000009A62B3019A012A4FEA075215DC001B8B
:1002600061EB02014FF0004202EA0752CDE9004281
:10027000001C41F5801132462B4600F023F903B0F3
:10028000BDE8F08F40462146F9E7001B61EB020113
:10029000001C41F5801300185B412018A2F50017DF
:1002A00047EB030140EAD570B6196D4111E06D08C6
:1002B0004FEA360645EAC0754FEA0752001B61EB6C
:1002C0000201001C41F5801149084FEA3000001975
:1002D000514132462B4603B0BDE8F04F00F0E5B87F
:1002E0000098012240000023D0EB020263EBE07390
:1002F000009821464FEAE074B8EB000061EB04017E
:10030000E9E783F000435BE781F0004158E700F044
:10031000004230F000400AD0C10D01F56071C0F319
:10032000160042EA0151C2084007114370470020FD
:100330000146704701F0004330B421F0004150EA1B
:10034000010206D00A0DA2F56072C1F31301002A62
:1003500002DC30BC00207047440F44EAC104C100F5
:10036000E01830BC00EBC25000F068B830B50B4666
:10037000014600202022012409E021FA02F59D42D5
:1003800005D303FA02F5491B04FA02F52844151EA9
:10039000A2F10102F1DC30BD2DE9F05F054600203D
:1003A00092469B4688460646814640241BE02846E6
:1003B00041464746224600F0F3F953465A46C01AD2
:1003C000914110D311461846224600F016F82D1A16
:1003D00067EB01084F4622460120002100F00DF88E
:1003E00017EB00094E41201EA4F10104DFDC484652
:1003F00031462A464346BDE8F09F202A04DB203AD6
:1004000000FA02F1002070479140C2F1200320FA67
:1004100003F3194390407047202A06DBCB17203A9C
:1004200041FA02F043EAE07306E041FA02F3D040F9
:10043000C2F1200291400843194670470029A8BF25
:100440007047401C490008BF20F00100704710B4FD
:10045000B0FA80FC00FA0CF050EA010404BF10BCB2
:10046000704749B1CCF1200421FA04F411FA0CF1DF
:1004700018BF012121430843A3EB0C01CB1D4FEA18
:1004800000614FEA102042BF002010BC704700EB13
:10049000C35010440029A4BF10BC7047401C490041
:1004A00008BF20F0010010BC704710B5002B08DA1F
:1004B000401C41F1000192185B411A4301D120F028
:1004C000010010BD2DE9F04D92469B4611B1B1FAE5
:1004D00081F202E0B0FA80F220329046FFF78DFF01
:1004E00004460F4640EA0A0041EA0B0153465A46C9
:1004F000084313D0114653EA010019D0C8F1400255
:10050000504600F04DF905460E46504659464246C3
:10051000FFF773FF084305D0012004E02046394669
:10052000BDE8F08D0020054346EAE0762C433743D2
:100530000A986305E40AA0EB08000022FD0A44EAD9
:1005400047540A3002D500200146E9E70105101999
:100550006941DDE9084500196941BDE8F04DA4E7AE
:100560002DE9FE4F81EA030404F0004421F000412C
:1005700000944FF0000B23F0004350EA01045ED0DA
:1005800052EA03045BD0C3F30A54C1F30A552C4466
:10059000A4F2F3340194A0FB0254C1F3130141F41B
:1005A0008011C3F3130343F4801301FB024400FBE7
:1005B000034E840A970A44EA815447EA8357A4FB0E
:1005C000076802958D0A05FB07854FEA932C04FB0B
:1005D0000C542705029D4FEA065847EA1637B5EB3B
:1005E00008056EEB070C870E920E47EA811742EA68
:1005F0008312A7FB0201B6EB0B0164EB00042B0D89
:1006000043EA0C335E1844EB1C50DA465146E7FBD4
:100610000201C5F313044FEA0B3343EA14534FEAC4
:100620000432019C43EA0603A4F10C040294009CEA
:10063000CDE900B4FFF746FF03B0BDE8F08F00201E
:100640000146F9E72DE9F04D81EA030404F0004B7F
:1006500021F0004514464FF0000A23F0004150EA13
:10066000050220D054EA01021DD0C5F30A57024604
:10067000C5F31303C1F31300C1F30A5640F4801508
:1006800043F48013A7EB0608101BD64608F2FD388A
:1006900073EB050002D308F1010801E092185B41F9
:1006A000B8F1000F03DA00200146BDE8F08D00200C
:1006B0004FF48011064684460EE0171B73EB0507C6
:1006C00005D3121B63EB050306434CEA010C4908F2
:1006D0004FEA300092185B4150EA0107EDD152EA2F
:1006E000030012D082EA040083EA0501084305D022
:1006F000101BAB4106D20122002306E000224FF07E
:10070000004302E06FF0010253101AEB06004CEBBD
:10071000085110EB0A0041EB0B01BDE8F04DFFF76B
:10072000C4BEC1F30A52C1F3130140F2FF3341F4D6
:1007300080119A4202DA00200146704740F23343AA
:100740009A42A2F2334202DC524200F029B8FFF78B
:1007500054BE000030B5002904DB4FF00044404295
:1007600064EB0101002B04DB4FF00044524264EBC8
:100770000303994208BF904230BD0000064C074D6C
:1007800006E0E06840F0010394E807009847103461
:10079000AC42F6D3FFF7FCFCEC1900080C1A000879
:1007A000202A04DB203A21FA02F00021704721FAC6
:1007B00002F3D040C2F1200291400843194670472D
:1007C00000BFFEE77047F0B50A4600210023002471
:1007D00000BF3DE0012505FA01F3156805EA0304B1
:1007E0009C4234D105684F000326BE40B5430560E6
:1007F00015794E00B5400668354305601579012D21
:1008000002D01579022D16D185684F000326BE400F
:10081000B543856055794E00B5408668354385609F
:10082000456801268E40B5434560456896798E40FF
:10083000B6B235434560C5684F000326BE40B54398
:10084000C560D5794E00B540C6683543C560491CC2
:100850001029BFD3F0BDF0B5002300244D07ED0EE5
:1008600002FA05F3CE1000F1200555F826504E0788
:10087000F70E0F26BE40B543CF1000F1200646F814
:100880002750CE1000F1200555F8265045EA030404
:10089000CE1000F1200545F82640F0BD00BFFEE770
:1008A00000BFFEE77047000070B5002100230F2253
:1008B000C4781CB3174C246804F4E064C4F5E06405
:1008C000C4F30721C1F10404E3B20A4144789C4017
:1008D000E1B28478144021430C07210E0E4C0578B8
:1008E0006155047804F01F050124AC4005786D11B2
:1008F000AD0005F1E025C5F8004109E0047804F0F9
:100900001F050124AC40054D0678761145F82640B8
:1009100070BD00000CED00E000E400E080E100E0CC
:100920007047000029B1064A12680243044B1A605E
:1009300004E0034A12688243014B1A6070470000CA
:100940003038024029B1064A12680243044B1A604B
:1009500004E0034A12688243014B1A6070470000AA
:100960004038024029B1064A12680243044B1A601B
:1009700004E0034A12688243014B1A60704700008A
:1009800044380240F0B50021002200240225002650
:100990000223324F3F6807F00C0121B1042905D032
:1009A000082937D105E02E4F076036E02D4F07604C
:1009B00033E02A4F3F1F3F68C7F38056274F3F1F42
:1009C0003F6807F03F036EB1264FB7FBF3F7DFF840
:1009D0008CC0ACF1040CDCF800C0CCF3881C07FB25
:1009E0000CF40CE01E4FB7FBF3F7DFF870C0ACF16E
:1009F000040CDCF800C0CCF3881C07FB0CF4174F88
:100A00003F1F3F68C7F301477F1C7D00B4FBF5F72C
:100A1000076002E0124F076000BF00BF0F4F3F6842
:100A200007F0F0010909104F7A5C0768D74047606A
:100A30000A4F3F6807F4E051890A0B4F7A5C476818
:100A4000D7408760054F3F6807F46041490B064F68
:100A50007A5C4768D740C760F0BD000008380240A4
:100A60000024F40000127A000A0000207047000001
:100A70000CB50020019000903448006840F48030AC
:100A80003249086000BF3148006800F4003000902F
:100A90000198401C0190009818B90198B0F5A04F3A
:100AA000F1D12A48006800F4003010B10120009014
:100AB00001E0002000900098012846D123484030F2
:100AC000006840F0805021494031086020480068AB
:100AD00040F440401E4908601C48083000681B492B
:100AE000083108600846006840F400400860084685
:100AF000006840F4A05008601648091F0860081FED
:100B0000006840F08070091F086000BF0F4800684F
:100B100000F000700028F9D040F205700E4908601E
:100B20000A480830006820F00300084908310860CE
:100B30000846006840F00200086000BF0348083023
:100B4000006800F00C000828F8D10CBD0038024005
:100B50000070004008544007003C0240042808D1BF
:100B60004FF0E021096941F004014FF0E0221161EA
:100B700007E04FF0E021096921F004014FF0E02285
:100B8000116170477047000010B51248006840F0CE
:100B900001001049086000200E49083108600D4826
:100BA00000680D4908400B4908600C48091D0860A1
:100BB000081F006820F48020091F086000200549F4
:100BC0000C310860FFF754FF4FF0006004490860E3
:100BD00010BD000000380240FFFFF6FE1030002478
:100BE00008ED00E00EB501210220FFF7ABFE072063
:100BF000ADF800004FF6FF7001900020ADF8020044
:100C0000ADF808006946024800F010F80EBD00007B
:100C10000004004021B1028842F00102028004E099
:100C200002884FF6FE731A40028070470022028845
:100C3000184B98420ED0184B98420BD0B0F1804F11
:100C400008D0164B984205D0154B984202D0154B50
:100C5000984204D14FF68F731A404B881A43124BB7
:100C6000984207D0114B984204D04FF6FF431A40E8
:100C70000B891A4302804B68C3620B880385054BBE
:100C8000984202D0044B984201D18B7A038601230B
:100C900083827047000001400004014000040040CE
:100CA00000080040000C004000100040001400400C
:100CB00010B540F225511D4800F04AF810B31B480A
:100CC00000F000F9C4B21A48008800F40040C8B926
:100CD0001748008800F4804060B10A2C03D000203F
:100CE0001349088020E01248008840F40040104971
:100CF000088019E00D2C06D10D48008840F4804092
:100D00000B49088010E00A480088C0F30D0009492B
:100D10000C5407480088401C054908800846008894
:100D2000C72801DD0020088010BD00000010014030
:100D3000080000201C00002021B1828942F40052EA
:100D4000828104E082894DF6FF731A4082817047E8
:100D500070B50246002400230025002040F66A16E4
:100D6000B14200D100BFC1F3421501F01F030126BB
:100D700006FA03F3012D02D19689334006E0022DD5
:100D800002D1168A334001E0968A33400C120126C4
:100D900006FA04F41688344013B10CB1012000E0C7
:100DA000002070BDF0B50346002400260025002079
:100DB00040F66A17B94200D100BF1846C1F3421489
:100DC00001F01F06012707FA06F5012C01D10C30AE
:100DD00004E0022C01D1103000E014301AB1076891
:100DE0002F43076002E00768AF430760F0BD0000D3
:100DF0002DE9FF4705460E460024A14600BFA04648
:100E0000B08900B100BF2C8A24F44054F088044318
:100E10002C82AC8941F20C608443B088318908434C
:100E2000718908430443AC81AC8A24F44074B089CE
:100E30000443AC826846FFF7A5FD2048854202D0F6
:100E40001F48854202D1DDF80C9001E0DDF80890E2
:100E5000A88900F4004040B109EBC90000EB09107B
:100E600031684900B0FBF1F707E009EBC90000EB7E
:100E7000091031688900B0FBF1F76420B7FBF0F08E
:100E800004012009642101FB1078A88900F40040C6
:100E900040B1322000EBC800B0FBF1F000F00700D9
:100EA000044308E0322000EB08106421B0FBF1F0AD
:100EB00000F00F0004432C81BDE8FF8700100140C3
:100EC0000014014001468888C0F30800704700BF45
:100ED000FEE700000FB4054B10B503A9044A0298C1
:100EE00000F0CAF810BC5DF814FB00006918000897
:100EF0000400002002E008C8121F08C1002AFAD12D
:100F000070477047002001E001C1121F002AFBD189
:100F1000704700002DE9FF5FDDE90220010DDDF8DB
:100F200038B0024318D044F61050A1F2FF314143CB
:100F30000D140F98012820D0A5EB0B00401C5FEA90
:100F4000000A4FF00004474EDFF81C91A0465046BF
:100F500016D5CAF1000728E00F98012443A2012802
:100F600008D0002100980F9BC0E90021C0E902438E
:100F7000BDE8FF9F6FEA0B01F4E7CBF10000DEE76D
:100F8000074612E0F80707D0224633464046494656
:100F9000FFF7E6FA80468946224633461046194650
:100FA000FFF7DEFA04460E467F10002FEAD1DDE996
:100FB0000201BAF1000F42464B4602DAFFF7D0FABF
:100FC00001E0FFF73FFB04460E460022284BFFF7E7
:100FD000C1FB03D84FF0FF30014607E00022254B4C
:100FE00020463146FFF7ECF8FFF79BFB102409E0A1
:100FF000002C0ADB0A220023FFF7CEF9019B3032D6
:101000001A55641E50EA0102F2D1641C019AC4F11F
:10101000110314440F9A012A03D0012208430DD171
:101020000AE0084304D000204FF0110B0F9080E736
:10103000A3EB0B056D1E0DE05B4504DD4FF00002D8
:1010400005F1010504E003DA4FF00002A5F1010506
:10105000002AECD000980F99C0E90231C0E90045A0
:1010600086E70000000024400000F03F3000000050
:101070000000F0430000E03F2DE9FF4F95B09B4694
:101080008946064600250FE2252877D10024274609
:10109000F84A0121059400E0044316F8013F203B83
:1010A00001FA03F01042F7D130782A2811D06FF0FE
:1010B0002F033078A0F13002092A16D8059A44F09F
:1010C000020402EB820203EB42021044761C0590FC
:1010D000EFE759F8042B0592002A03DA504244F452
:1010E0000054059044F00204761C30782E2816D166
:1010F00016F8010F44F004042A280DD06FF02F02D7
:101100003078A0F13003092B09D807EB870302EBF5
:101110004303C718761CF3E759F8047B761C307834
:101120006C280FD006DC4C2817D068280DD06A2810
:1011300014D104E0742810D07A280FD10DE044F4C3
:1011400000140AE044F4801401E044F4401472787E
:10115000824202D104F58014761C761C3078662811
:101160000BD013DC582877D009DC002875D045282F
:10117000F6D04628F4D047281AD19DE118E063281C
:1011800035D0642879D0652812D195E1702873D0C4
:1011900008DC6728F1D069286FD06E280DD06F2841
:1011A00006D1B5E073282CD0752875D0782874D076
:1011B0005A46179990476D1C75E1C4F302500228F6
:1011C00009D003280DD0D9F8001004280DD00D60E7
:1011D00009F1040967E1D9F80010EA17C1E90052E2
:1011E000F6E7D9F800100D80F2E70D70F0E719F876
:1011F000041B8DF8001000208DF80100EA46012044
:1012000003E059F804AB4FF0FF3061074FF00001E5
:1012100002D40DE008F101018846B9420FDA804599
:10122000F8DB1AF808100029F4D108E008F10101F0
:1012300088468142FADB1AF808100029F6D1059891
:101240005B46A0EB080721463846179A00F094FA4F
:10125000284400EB080507E04DE029E10DE01AF80D
:10126000010B5A4617999047B8F10108F7D25B462F
:1012700021463846179A13E142E00A220092C4F34D
:1012800002524FF0000A022A08D059F804CB032A70
:101290004FEAEC710AD00DE029E02AE009F10701DC
:1012A00021F00702F2E802C1914609E00FFA8CFC36
:1012B0004FEAEC71042A03D14FFA8CFC4FEAEC712F
:1012C000002907DA0A460021DCF1000C61EB02017B
:1012D0002D2202E0220504D52B228DF804200122C4
:1012E00003E0E20701D02022F7E7904659E00A2107
:1012F00002E010220DE010214FF0000A00910BE0F7
:1013000010224FF0000A44F004040827009203E082
:1013100008224FF0000A0092C4F30252022A05D0BC
:1013200059F804CB0021032A08D009E009F107018C
:1013300021F00702F2E802C1914605E01FFA8CFC99
:10134000042A01D10CF0FF0C4FF00008220728D529
:10135000702806D0009B83F0100353EA0A0305D0DF
:101360000EE040228DF80420012208E05CEA010230
:1013700006D030228DF804208DF805000222904618
:10138000009B83F0080353EA0A030AD15CEA0102D6
:1013900001D1620705D530228DF804204FF00108F5
:1013A0007F1E582804D034A003900EA802900DE0B0
:1013B00036A0F9E753466046009AFEF7EDFF8446F3
:1013C0000398825C0298401E029002705CEA010061
:1013D000F0D1029806A9081A00F1200A600702D588
:1013E00024F4803400E00127574502DDA7EB0A0012
:1013F00000E0002000EB0A01009005984144401AEB
:101400000590E00306D45B462146179A059800F044
:10141000B3F90544002706E001A85A46C05D1799B4
:1014200090476D1C7F1C4745F6DBE0030CD55B46FF
:101430002146179A059800F09FF9054404E03020F2
:101440005A46179990476D1C0099481E0090002934
:10145000F5DC08E0029802995A460078491C02918E
:10146000179990476D1CBAF10001AAF1010AF1DC4D
:1014700065E1000009280100303132333435363758
:1014800038396162636465660000000030313233D0
:101490003435363738394142434445460000000070
:1014A00000F058F90544761C307800287FF4ECAD44
:1014B00019B02846BDE8F08F620700D4062709F16D
:1014C000070222F0070CFCE80223E14603F0004883
:1014D0005FEA080C02D00FF2702C0DE05FEA045CAA
:1014E00002D50FF2682C07E05FEAC47C02D00FF24D
:1014F000602C01E0AFF2700C4FF0FF3823F0004396
:10150000CDF850C065280CD006DC452809D0462807
:101510001DD047283DD13DE0662818D067287ED1F0
:1015200038E00021112F01DB112000E0781CCDE90B
:10153000000106A90EA8FFF7EDFCDDE90F010E9AE8
:1015400003910021009207F1010A04914DE04FF050
:1015500000400097CDE9011006A90EA8FFF7DAFCBC
:10156000DDE90F0203920E9B11990022DDF80CA019
:101570000093049211B9791C00EB010AB7EB0A0041
:1015800004D4C0F1FF3007F1010A0490AAEB070070
:10159000019044E0012F00DA01270021112F01DD25
:1015A000112000E03846CDE9000106A90EA8FFF79A
:1015B000B1FCDDE90F010E9A039100210491009224
:1015C000BA4621070CD40399514500DA8A46BAF18C
:1015D000010F05DD009AAAF10101515C302908D004
:1015E000B84202DA10F1040F06DA0121CDE9011048
:1015F00015E0AAF10101E9E7002805DC049901449E
:101600000491AAEB000102E0411C514500DD8A462D
:101610000499401A401C01904FF0004002902007AE
:1016200004D40198504501DBCDF8048000208DF8EA
:101630004F0002980DF14F07B0F1004F25D02B203D
:101640000E9002984FF0020800280CDA40420290F7
:101650002D200E9007E00A210298FEF787FE303118
:10166000029007F8011DB8F10001A8F10108F2DCB1
:1016700002980028EFD1791E0E980870307800F09B
:10168000200040F0450007F8020D12A8C01B00F131
:1016900007081498007800B1012000EB0A010198B6
:1016A00001EBE07105984144401A401E0590E003AB
:1016B00006D45B462146179A059800F05DF805446C
:1016C0001498007818B15A46179990476D1CE0039A
:1016D00024D55B462146179A059800F04DF805443D
:1016E0001CE00498002807DBDDE90301884203DDE4
:1016F0000098405C179901E0179930205A469047AE
:10170000049805F10105401C04900198401E0190C9
:1017100004D12E205A46179990476D1CBAF100014A
:10172000AAF1010ADDDC05E017F8010B5A4617990A
:1017300090476D1CB8F10001A8F10108F4DC5B468C
:101740002146179A0598ABE62D0000002B000000FB
:10175000200000002DE9F041044600251E461746F2
:10176000880404D405E039462020B0476D1C641E6F
:10177000F9D52846BDE8F0812DE9F0410446002561
:101780001E469046C80301D5302700E02027880474
:1017900004D505E041463846B0476D1C641EF9D5B6
:1017A0002846BDE8F081000010B504466FF0040043
:1017B000FFF7D4F9E11704EB5171C1F3C701074AF0
:1017C00011701046007800EB4001C1EBC0104FF6DD
:1017D000FF7101EAC0000249088010BD000000202E
:1017E0000200002070B504464FF4077094FBF0F03F
:1017F000C6B24FF4077094FBF0F100FB114085B2C4
:1018000005E04FF4077000F009F8701EC6B2002E14
:10181000F7D115B1284600F001F870BD0146114A14
:1018200012884A434FF0E0235A6100229A611A4617
:10183000126942F001021A6100BF4FF0E022106904
:1018400000F001021AB100F48032002AF5D04FF006
:10185000E022126922F001024FF0E0231A61002217
:101860009A6170470200002000BF054A128802F00A
:101870004002002AF9D0C2B2014B9A8070470000A2
:101880000010014008B51D4C4FF00009A820FFF7DB
:101890008BFF4FF4E13000F053F8FFF7A3F918A0E5
:1018A000FFF718FB6420FFF79DFF25E000201C498F
:1018B000086001211A482438FFF7ACF92046FEF7EA
:1018C00026FD0746174A184BFEF77AFC0546FEF739
:1018D00031FD04461248D0F800902046FEF717FD6F
:1018E00005462A460B4611A0CDF80090FFF7F2FA04
:1018F0004FF4FA70FFF776FFD8E700000AD7233CD1
:1019000073746D333246343037B2E2CAD4B8A1B5FD
:10191000E3D0CDD4CBCBE3B3CCD0F20A00000000AF
:1019200024040040AF05BD77677B843F7265737503
:101930006C743A25663B2074696D653A25640A002B
:1019400010B588B0044601210846FEF7EBFF0121DF
:101950001020FFF707F8072209212248FEF77BFF36
:1019600007220A211F48FEF776FF4FF4C060069059
:1019700002208DF81C008DF81D0000208DF81E003F
:1019800001208DF81F0006A91648FEF71CFF0294DF
:101990000020ADF80C00ADF80E00ADF81000ADF869
:1019A00014000C20ADF8120002A90F48FFF720FA2E
:1019B00001210D48FFF7C0F9012240F225510A48E4
:1019C000FFF7F0F925208DF8040003208DF80500BD
:1019D0008DF8060001208DF8070001A8FEF764FFCE
:1019E00008B010BD00000240001001400C1A0008B1
:1019F000000000201C000000F40E0008281A000857
:101A00001C000020CC040000040F000800000000AF
:101A100000000000000000000000010203040102B9
:081A2000030406070809000099
:040000050800018965
:00000001FF
