:020000040800F2
:1000000078080020A958000805060008070600081F
:100010000B0600080F060008130600080000000089
:1000200000000000000000000000000017060008AB
:1000300019060008000000001B0600081D06000845
:10004000C3580008C3580008C3580008C358000824
:10005000C3580008C3580008C3580008C358000814
:10006000C3580008C3580008C3580008C358000804
:10007000C3580008C3580008C3580008C3580008F4
:10008000C3580008C3580008C3580008C3580008E4
:10009000C3580008C3580008C3580008C3580008D4
:1000A000C3580008C3580008C3580008C3580008C4
:1000B000C35800082D560008C3580008C35800084C
:1000C000C3580008C3580008C3580008C3580008A4
:1000D000C35800081D580008C3580008C35800083A
:1000E000C3580008C3580008C3580008C358000884
:1000F000C3580008C3580008C3580008C358000874
:10010000C3580008C3580008C3580008C358000863
:10011000C3580008C3580008C3580008C358000853
:10012000C3580008C3580008C3580008C358000843
:10013000C3580008C3580008C3580008C358000833
:10014000C3580008C3580008C3580008C358000823
:10015000C3580008C3580008C3580008C358000813
:10016000C3580008C3580008C3580008C358000803
:10017000C3580008C3580008C3580008C3580008F3
:10018000C3580008C358000800F002F800F050F807
:100190000AA090E8000C82448344AAF10107DA45E2
:1001A00001D100F045F8AFF2090EBAE80F0013F0E4
:1001B000010F18BFFB1A43F001031847C4AB00003E
:1001C000E4AB0000103A24BF78C878C1FAD85207CF
:1001D00024BF30C830C144BF04680C6070470000C1
:1001E0000023002400250026103A28BF78C1FBD840
:1001F000520728BF30C148BF0B607047662909F01D
:100200004C81642907F00284782907F03B84732924
:1002100007F09987002070471FB507F0ABFF040077
:100220000020002108F0E8FCE0601FBD10B510BD03
:1002300008F0A0F81146FFF7EFFF00F098F808F07B
:10024000BEF803B4FFF7F2FF03BC05F087FA000025
:1002500030B50346002000210022002400BF18E032
:10026000C502C5F3C71100EB40056D02C5F3C71207
:100270008502C5F3C714C9104FF6FF7505EAC12101
:10028000921005EA4212E4108D18254423F810500C
:10029000401C8028E4D330BD2DE9F04F87B00746DD
:1002A000884691469A4600265CE0002556E0A6EB7B
:1002B0000A0008F051FF8346109808F065FF0146D8
:1002C0000290584608F086FE8346A5EB090008F028
:1002D00043FF0490109808F057FF014602900498DD
:1002E00008F078FE049000240020039027E059468F
:1002F000584608F091FF06900499084608F08CFFD4
:10030000059059464FF0804008F086FF019004990F
:1003100008F082FF8C49029008F0EEFD0490DDE9C0
:10032000051009F045F88949029008F0E5FD83467B
:10033000DDE9051008F0E0FD0390601CC4B27F2CDD
:1003400005DA4FF08141039808F032FFCFD380489F
:1003500030F814007F490880681C85B2BD42A6DBD6
:10036000701C86B24645A0DB07B0BDE8F08F90B0A8
:10037000002400264FF4A06005F0B6FAA82005F08E
:100380006BF94FF4E13005F0F7F900F049FA05F0A8
:100390009FF801F01EF942F2CF014FF6FF7005F011
:1003A00019F94FF478406C4908806CA010210B4675
:1003B000C822CDE9001032211E2005F056F86CA0AD
:1003C00010210B46C822CDE9001046211E2005F061
:1003D0004CF86AA010210B46C822CDE900105A2122
:1003E0001E2005F042F869A010210B46C822CDE975
:1003F00000106E211E2005F038F867A010210B4672
:10040000C822CDE9001082211E2005F02EF867A039
:1004100010210B46C822CDE9001096211E2005F0C0
:1004200024F84FF4966005F079F91F204A490880B6
:100430004748FFF70DFF85E0002005F067F8054607
:100440002846012D04D0032808D0042812D10BE03F
:10045000601CC4B2192C00D900240BE014B1601E3A
:10046000C4B200E0192405E00EB9012000E000202C
:10047000064600BF00BF012E04D1601CC4B2192C77
:1004800000D900244E48438802880021084600F025
:1004900060FF00F012FA00204A4908604A490870DB
:1004A0004A4830F81400DFF818C10090BCF8027018
:1004B00007EBD77C4FEA6C03DFF804C1BCF800807F
:1004C00008EBD87C4FEA6C02DFF8F4C0BCF80210ED
:1004D000BCF80000FFF7E0FE3A490A683A4909789B
:1004E00002EB014008F050FE81463949484608F0C9
:1004F00071FD824608F0D4FCCDE90001334830F8A4
:10050000143034A235A103A807F042FA03A80C2145
:10051000CDE900102A480088401F82B22848408850
:10052000113881B20C23052004F09FFF03A933A0EA
:1005300007F022FA3248006808B9012000E00020E4
:100540002F49086078E700000AD7233C85EB913EED
:100550003C0000208000006C180000204578706C82
:100560006F7265722053544D3332463400000000E0
:1005700046505520544553540000000041544F4DFF
:1005800040414C49454E54454B0000003230313417
:100590002F372F32000000004B4559303A2B2020D6
:1005A00020204B4559323A2D000000004B45595F41
:1005B00055503A4155544F2F4D414E554C00000077
:1005C0003C01002024040040000000209E9400080C
:1005D00000002041465055204F66660025733A20A2
:1005E0007A6F6F6D3A2564202072756E74696D653F
:1005F0003A25302E31666D730D0A00002573000018
:10060000A4824242704700BFFEE700BFFEE700BF82
:10061000FEE700BFFEE77047704770477047000075
:100620000CB50020019000907248006840F48030C2
:100630007049086000BF6F48006800F40030009007
:100640000198401C0190009818B90198B0F5A04F8E
:10065000F1D16848006800F4003010B1012000902A
:1006600001E0002000900098012846D16148403008
:10067000006840F080505F49403108605E48006883
:1006800040F440405C4908605A48083000685949C5
:10069000083108600846006840F4004008600846D9
:1006A000006840F4A05008605448091F0860081F03
:1006B000006840F08070091F086000BF4D48006866
:1006C00000F000700028F9D040F205704C49086035
:1006D00048480830006820F00300464908310860A7
:1006E0000846006840F00200086000BF414808303A
:1006F000006800F00C000828F8D10CBD10B53D488A
:10070000006840F001003B49086000203949083189
:100710000860384800683B490840364908603A4854
:10072000091D0860081F006820F48020091F086068
:10073000002030490C310860FFF772FF4FF0006075
:100740003249086010BD70B5002000220223002449
:100750000221284D08352D6805F00C0020B1042831
:1007600006D0082834D107E0294D2A4E356033E001
:10077000294D284E35602FE01E4D2D1D2D68C5F3E7
:1007800080541C4D2D1D2D6805F03F0154B1224DA4
:10079000B5FBF1F5174E361D3668C6F3881605FB16
:1007A00006F209E01A4DB5FBF1F5124E361D36681A
:1007B000C6F3881605FB06F20E4D2D1D2D68C5F3F8
:1007C00001456D1C6B00B2FBF3F5124E356003E082
:1007D0000F4D104E356000BF00BF064D08352D6827
:1007E000C5F303150D4E705D0A4D2D68C540094EC9
:1007F000356070BD0038024000700040085440076A
:10080000003C0240FFFFF6FE1030002408ED00E03F
:100810000024F4000400002000127A0008000020E8
:100820001CB50121202005F0D7FE4FF4C0600090D8
:1008300001208DF8040000208DF8060003208DF8BB
:10084000050001208DF807006946044805F042F9CB
:100850004FF4C061014805F0B9F91CBD0014024015
:1008600001B5BDF800000090BDF80000F84908800F
:1008700008BD01B5BDF800000090BDF80000F449C6
:10088000891C088008BD08B5F148801C00880090CC
:10089000BDF8000008BDEE4A10804FF0D842A2F823
:1008A0008010704710B504462046FFF7D9FF052099
:1008B00004F0ECFEFFF7E7FF10BDE6480089E449CD
:1008C00008807047E249891C0880704730B50146AE
:1008D00001F01F04C1F34513CA0AE50205EB4315F5
:1008E0001544A8B230BD00BF0100A0F10102D0B292
:1008F000FAD1704730B504460D46D648808849F293
:100900004131884205D0D348808845F21031884271
:1009100014D1D0494889FFF7A3FF2012FFF7A9FFA0
:10092000E0B2FFF7A6FFCB498889FFF799FF2812AD
:10093000FFF79FFFE8B2FFF79CFFABE0C548808858
:1009400046F6040188421DD1C2488079012804D1AD
:10095000C0480088401E001B84B2BE494889FFF78A
:100960007FFF2012FFF785FFE0B2FFF782FFB94952
:100970008889FFF775FF2812FFF77BFFE8B2FFF7C2
:1009800078FF87E0B348808841F66311884247D1F9
:10099000B0488079A8B9AF480088401E001B84B2D7
:1009A000AC494889FFF75CFF0020FFF762FF002099
:1009B000FFF75FFF2012FFF75CFFE0B2FFF759FF80
:1009C00016E0A4494889FFF74BFF2012FFF751FFBB
:1009D000E0B2FFF74EFF9F490988491EC1F30F207F
:1009E000FFF747FF9B490978491EC8B2FFF741FF4F
:1009F00098498889FFF734FF2812FFF73AFFE8B2D9
:100A0000FFF737FF93494988491EC1F30F20FFF7CD
:100A100030FF90498978491EC8B2FFF72AFF39E0B4
:100A20008C48808845F21051884220D189494889F4
:100A3000FFF716FF2012FFF71CFF86494989491C62
:100A400088B2FFF70DFFE0B2FFF713FF81498889F5
:100A5000FFF706FF2812FFF70CFF7E498989491C22
:100A600088B2FFF7FDFEE8B2FFF703FF12E0794816
:100A70008079012804D177480088401E001B84B289
:100A8000744948892146FFF706FF7249888929463B
:100A9000FFF701FF30BD2DE9F04105460E46002469
:100AA0000027A0466B480088A84203DD69484088BB
:100AB000B04202DC0020BDE8F08131462846FFF755
:100AC00019FF6448808849F24131884211D0614859
:100AD000808846F6040188420BD05E48808845F243
:100AE0001031884205D05B48808841F66311884206
:100AF00003D12E20FFF7B4FE0DE05648808845F262
:100B00001051884204D14FF43850FFF7A9FE02E09B
:100B10002220FFF7A5FE4F48808849F22031884205
:100B200002D10220FFF7DFFEFFF7ADFE0446494881
:100B3000808841F66311884201D12046BBE702203C
:100B4000FFF7D1FEFFF79FFE04464248808849F236
:100B5000413188420BD03F48808845F210318842AD
:100B600005D03C48808845F2105188420AD10220C5
:100B7000FFF7B9FEFFF787FE8046E7B24FF6FF703A
:100B800000EA07273348808849F22531884216D089
:100B90003048808844F23551884210D02D488088F2
:100BA000091F88420BD02B4880884BF205518842A0
:100BB00005D0284880884CF20551884201D1204652
:100BC00079E72448808849F2413188420BD0214896
:100BD000808845F21031884205D01E48808845F251
:100BE0001051884207D1E012C002B91240EA411008
:100BF00040EAE8205FE72046FFF768FE5BE700B5C4
:100C00001448808849F24131884211D011488088C7
:100C100046F6040188420BD00E48808845F2103118
:100C2000884205D00B48808841F66311884203D181
:100C30002920FFF715FE14E00648808845F2105180
:100C4000884209D14FF42450FFF70AFE09E0000062
:100C50007E00006C3C01002040F273110720FFF77A
:100C60001AFE00BD00B5FD48808849F24131884236
:100C700011D0FA48808846F6040188420BD0F74824
:100C8000808845F21031884205D0F448808841F6CA
:100C90006311884203D12820FFF7E2FD0EE0EF4800
:100CA000808845F21051884204D14FF42050FFF75C
:100CB000D7FD03E000210720FFF7EDFD00BDF0B5F3
:100CC000054600240027E548807901280BD1E34838
:100CD000808846F60401884205D0E048808841F6C5
:100CE0006311884208D1DD488079F0B9DB488088FB
:100CF00041F66311884218D1082D15D2DFE805F0BE
:100D00000406080A0C0E101206250DE007250BE05C
:100D1000042509E0052507E0012505E0002503E09D
:100D2000032501E0022500BF00BFCC48808849F2BE
:100D30004131884217D0C948808846F6040188426C
:100D400011D0C648808845F2103188420BD0C34884
:100D5000808845F21051884205D0C048808841F60D
:100D6000631188427ED1082D1CD2DFE805F004060D
:100D7000090C0F12151800BF14E044F0800411E0B4
:100D800044F040040EE044F0C0040BE044F02004C2
:100D900008E044F0600405E044F0A00402E044F000
:100DA000E00400BF00BFAD48808845F21051884282
:100DB00002D14FF4585700E03627A848808845F202
:100DC000103188420DD0A548808845F210518842E4
:100DD00007D0A248808841F66311884201D044F0D0
:100DE00008049E48808846F60401884201D144F0F8
:100DF000020421463846FFF74EFD9848808841F6A8
:100E0000631188421DD004F0200068B19348008827
:100E100092494988884214DA9048068840888F4968
:100E20000880084646800CE08C4800888B49498839
:100E3000884206DD89480688408888490880084637
:100E400046808648808845F21051884254D18349B3
:100E50004889FFF705FD0020FFF70BFD7F49498911
:100E6000491C00E077E088B2FFF7FAFC0020FFF7AA
:100E700000FD7A494989891C88B2FFF7F1FC77495E
:100E80000988491EC1F30F20FFF7F3FC7349498914
:100E9000C91C88B2FFF7E4FC70490978491EC8B242
:100EA000FFF7E7FC6D498889FFF7DAFC0020FFF7C0
:100EB000E0FC6A498989491C88B2FFF7D1FC00200F
:100EC000FFF7D7FC65498989891C88B2FFF7C8FC00
:100ED00062494988491EC1F30F20FFF7CAFC5F49E8
:100EE0008989C91C88B2FFF7BBFC5C498978491E17
:100EF000C8B2FFF7BEFC55E058494889FFF7B0FC7F
:100F00000020FFF7B6FC0020FFF7B3FC5349098827
:100F1000491EC1F30F20FFF7ACFC50490978491E68
:100F2000C8B2FFF7A6FC4D498889FFF799FC00205D
:100F3000FFF79FFC0020FFF79CFC48494988491EA9
:100F4000C1F30F20FFF795FC44498978491EC8B2C8
:100F5000FFF78FFC26E0082D1CD2DFE805F0040720
:100F60000A0D0F12151844F0300413E044F0100479
:100F700010E044F020040DE000BF0BE044F0380422
:100F800008E044F0280405E044F0180402E044F0CE
:100F9000080400BF00BF032744F4805421463846AC
:100FA000FFF779FCF0BD30B504460D4629462046D2
:100FB000FFF7A0FCFFF781FC294800882949088039
:100FC00030BD70B504460D4616462448808849F267
:100FD0004131884205D02148808845F2103188424D
:100FE00014D11E494889FFF73BFC2012FFF741FC52
:100FF000E0B2FFF73EFC19498889FFF731FC28125F
:10100000FFF737FCE8B2FFF734FC93E01348808821
:1010100045F21051884227D110494889FFF720FC3A
:101020002012FFF726FC0D494989491C88B2FFF7B9
:1010300017FCE0B2FFF71DFC08498889FFF710FC98
:101040002812FFF716FC05498989491C88B2FFF769
:1010500007FCE8B2FFF70DFC6CE000003C0100204B
:10106000180000208000006CFD48808841F6631164
:10107000884228D1FA48807920B9F9480088401E72
:10108000001B84B2F6494889FFF7EAFB2012FFF7FC
:10109000F0FBE0B2FFF7EDFB2012FFF7EAFBE0B256
:1010A000FFF7E7FBEE498889FFF7DAFB2812FFF725
:1010B000E0FBE8B2FFF7DDFB2812FFF7DAFBE8B24E
:1010C000FFF7D7FB36E0E648808846F60401884201
:1010D0001DD1E3488079012804D1E1480088401EF1
:1010E000001B84B2DE494889FFF7BAFB2012FFF7E4
:1010F000C0FBE0B2FFF7BDFBD9498889FFF7B0FB21
:101100002812FFF7B6FBE8B2FFF7B3FB12E0D448B2
:101110008079012804D1D2480088401E001B84B287
:10112000CF4948892146FFF7B6FBCD498889294632
:10113000FFF7B1FBCA480089CA4908804FF0D84080
:10114000A0F8806070BD2DE9F0470446BE20FFF78F
:1011500087FB0520FFF78DFB204607F090FD074633
:101160004FF06632C04B07F09DFD054607F05AFD73
:101170001FFA80F94846FFF77CFB0120FFF779FB57
:10118000FF20FFF776FB0020FFF773FB0020FFF73F
:1011900070FBBDE8F08710B50446002C66D1B0495D
:1011A0008871F02008804FF4A0704880084680883D
:1011B00049F2413188420BD0A948808846F60401A3
:1011C000884205D0A648808845F2103188421AD15D
:1011D0002C20A34908812A2048812B208881084699
:1011E000808846F60401884205D09D48808845F2F3
:1011F0001031884206D14FF4A070994908804FF40D
:10120000F0704880A1E09648808845F210518842ED
:1012100010D14FF43050924908814FF42850488142
:101220004FF42C5088814FF4F07008804FF44870D0
:1012300048808AE08A48808841F6631188420DD14F
:101240002C20874908812B2048812A2088814FF44F
:10125000F07008804FF44870488076E02220804982
:10126000088120204881212088816EE001207C496E
:1012700088714FF4A0700880F0204880084680886C
:1012800049F24131884205D07548808845F21031D5
:10129000884207D12C20724908812A2048812B20BE
:1012A00088813FE06E48808846F60401884207D175
:1012B0002C206B4908812B2048812A20888131E02D
:1012C0006748808845F21051884210D14FF4305061
:1012D000634908814FF4285048814FF42C5088818D
:1012E0004FF4487008804FF4F07048801AE05C4872
:1012F000808841F6631188420DD12C20584908811D
:101300002A2048812B2088814FF4487008804FF4B0
:10131000F070488006E02220514908812120488150
:10132000202088814E48808846F60401884205D0F6
:101330004B48808845F21031884206D14FF4F07056
:10134000474908804FF4A07048800020FFF7B7FCA1
:1013500010BD2DE9F04F86B004460D4690469946E3
:1013600004EB0800401E86B205EB0900401E87B260
:101370003B48808849F24131884215D038488088FE
:1013800045F2103188420FD03548808846F6040176
:10139000884209D032488079012826D13048808897
:1013A00041F66311884220D12D494889FFF758FA48
:1013B0002012FFF75EFAE0B2FFF75BFA3012FFF798
:1013C00058FAF0B2FFF755FA25498889FFF748FA2D
:1013D0002812FFF74EFAE8B2FFF74BFA3812FFF780
:1013E00048FAF8B2FFF745FABEE01D48808841F69A
:1013F000631188423AD11A480088A0EB0800001B0C
:1014000084B205EB0900401E1FFA80F9144948898F
:10141000FFF726FA2012FFF72CFAE0B2FFF729FABD
:1014200004EB0801491EC1F30F20FFF722FA04EB79
:101430000801491EC8B2FFF71CFA09498889FFF75D
:101440000FFA2812FFF715FAE8B2FFF712FA4FEA7F
:101450002920FFF70EFA09F0FF00FFF70AFA83E0F0
:101460003C0100207E00006C66660440FE488088D7
:1014700045F21051884244D1FB494889FFF7F0F901
:101480002012FFF7F6F9F8494989491C88B2FFF79D
:10149000E7F9E0B2FFF7EDF9F3494989891C88B211
:1014A000FFF7DEF93012FFF7E4F9EF494989C91C6B
:1014B00088B2FFF7D5F9F0B2FFF7DBF9EA4988897E
:1014C000FFF7CEF92812FFF7D4F9E7498989491CBB
:1014D00088B2FFF7C5F9E8B2FFF7CBF9E24989898D
:1014E000891C88B2FFF7BCF93812FFF7C2F9DE4950
:1014F0008989C91C88B2FFF7B3F9F8B2FFF7B9F9C7
:1015000032E0D948807901280ED1AA46BB46D64898
:101510000088801B401E80B20190D3480088001BC9
:10152000401E80B2009003E0A246B34601950097AA
:101530005020059051200490522003905320029097
:1015400051460598FFF7A7F959460498FFF7A3F904
:1015500001990398FFF79FF900990298FFF79BF90B
:1015600029462046FFF7C6F906B0BDE8F08F70B5F2
:1015700004460026BC48058840884543BA48808810
:1015800046F60401884216D1B7488079012812D165
:101590000020B54988712A2048812B2088810021AC
:1015A0000846FFF7A7F90120AF4988712B20488131
:1015B0002A20888103E000210846FFF79BF9FFF706
:1015C0007CF9002602E0A9480480761CAE42FAD3DA
:1015D00070BD00B5A1B00020209001217A2004F058
:1015E000FBFF0121084605F02FF84FF400401E9044
:1015F00001208DF87C0000208DF87E0002208DF8FF
:101600007D0001208DF87F001EA9994804F062FA40
:101610004CF233701E9002208DF87C0000208DF873
:101620007E0003208DF87D0001208DF87F001EA92B
:10163000904804F04FFA4FF680701E9002208DF80B
:101640007C0000208DF87E0003208DF87D000120B5
:101650008DF87F001EA9884804F03CFA4FF48050B2
:101660001E9002208DF87C0000208DF87E00032063
:101670008DF87D0001208DF87F001EA97F4804F0C1
:1016800029FA4FF480501E9002208DF87C00002033
:101690008DF87E0003208DF87D0001208DF87F00FD
:1016A0001EA9774804F016FA0C220021714804F0B4
:1016B0009CFA0C2201216F4804F097FA0C220421B5
:1016C0006C4804F092FA0C2205216A4804F08DFA65
:1016D0000C220821674804F088FA0C220921654889
:1016E00004F083FA0C220A21624804F07EFA0C22EC
:1016F0000E21604804F079FA0C220F215D4804F0B5
:1017000074FA0C2207215C4804F06FFA0C220821BD
:10171000594804F06AFA0C220921574804F065FA86
:101720000C220A21544804F060FA0C220B21524882
:1017300004F05BFA0C2211464F4804F056FA0C22D2
:101740000D214D4804F051FA0C220E214A4804F0B4
:101750004CFA0C220F21484804F047FA0C2211469B
:10176000464804F042FA0C221146454804F03DFA7E
:101770000F200890002009903C200A9000200B9038
:101780000C900D900E9009200190002002900820EE
:1017900003900020049005900690079006200F907B
:1017A000002010901190102012900020139015909E
:1017B0001490169017904FF48050189000201990B4
:1017C0004FF480401A9000201B9008A81C9001A89C
:1017D0001D900FA804F05DFA0121062004F0E4FA40
:1017E000322003F09BFF01210020FFF754F8322044
:1017F00003F094FF0020FFF755F81B498880084646
:101800008088FF280ADB084680884FF6FF718842EF
:1018100004D015488088B0F5134F7DD1D320FFF751
:101820001FF8FFF730F810498880FFF72CF80E49B1
:101830008880FFF728F80C498880084680884FF692
:10184000FF7101EA002008498880FFF71CF806496B
:1018500089880843044988800846808849F24131D4
:10186000884259D0BF200DE03C0100208000006C70
:1018700000040240000C024000100240001402402C
:1018800000180240FEF7ECFFFEF7FDFFFE498880DE
:10189000FEF7F9FFFC498880FEF7F5FFFA498880DA
:1018A000FEF7F1FFF8498880084680884FF6FF71FF
:1018B00001EA0020F4498880FEF7E5FFF2498988B3
:1018C0000843F14988800846808846F6040188422A
:1018D0007AD0D420FEF7C4FFFEF7D5FFEA4988800E
:1018E000FEF7D1FFE8498880FEF7CDFFE649888002
:1018F000084680884FF6FF7101EA0020E24988809F
:10190000FEF7C1FFE04989880843DF49888008461F
:10191000808845F2103100E056E0884254D04FF400
:101920005A40FEF79DFFFEF7AEFFD74988804FF47F
:101930005B40FEF795FFFEF7A6FFD3498880084677
:1019400080884FF6FF7101EA0020CF4988804FF46C
:101950005C40FEF785FFFEF796FFCB498988084378
:10196000C949888008468088B0F5004F02D145F209
:1019700010508880C448808845F21051884223D096
:10198000A120FEF76DFFFEF77EFFBF498880FEF7BE
:101990007AFFBD498880084680884FF6FF7101EACA
:1019A0000020B9498880FEF76EFFB749898808434F
:1019B000B54988800846808845F26171884203D124
:1019C00041F66310B0498880AF48808849F24131C0
:1019D000884211D0AC48808845F2103188420BD043
:1019E000A948808845F21051884205D0A6488088D1
:1019F00041F6631188421DD1A448006820F00F0011
:101A00004FF02041C1F81C010846D0F81C0120F419
:101A10007060C1F81C010846D0F81C0140F00300BA
:101A2000C1F81C010846D0F81C0140F40070C1F850
:101A30001C0128E09448808846F60401884205D0BD
:101A4000914880884CF2055188421CD18F4800682B
:101A500020F00F004FF02041C1F81C010846D0F8DB
:101A60001C0120F47060C1F81C010846D0F81C016C
:101A700040F00A00C1F81C010846D0F81C0140F4EF
:101A80004060C1F81C018048818881A005F074FF86
:101A90007D48808849F2413188427CD1CF20FEF7D1
:101AA000DFFE0020FEF7E5FEC120FEF7E2FE30205B
:101AB000FEF7DFFEED20FEF7D3FE6420FEF7D9FE31
:101AC0000320FEF7D6FE1220FEF7D3FE8120FEF79C
:101AD000D0FEE820FEF7C4FE8520FEF7CAFE1020E7
:101AE000FEF7C7FE7A20FEF7C4FECB20FEF7B8FE55
:101AF0003920FEF7BEFE2C20FEF7BBFE0020FEF7CD
:101B0000B8FE3420FEF7B5FE0220FEF7B2FEF72045
:101B1000FEF7A6FE2020FEF7ACFEEA20FEF7A0FEB0
:101B20000020FEF7A6FE0020FEF7A3FEC020FEF771
:101B300097FE1B20FEF79DFEC120FEF791FE0120BF
:101B4000FEF797FEC520FEF78BFE3020FEF791FED4
:101B50003020FEF78EFEC720FEF782FEB720FEF78C
:101B600088FE3620FEF77CFE4820FEF782FE3A20F3
:101B7000FEF776FE5520FEF77CFEB120FEF770FEE4
:101B80000020FEF776FE1A20FEF773FEB620FEF761
:101B900067FE0A2000E0A6E0FEF76BFEA220FEF73B
:101BA00068FEF220FEF75CFE0020FEF762FE2620B3
:101BB000FEF756FE0120FEF75CFEE020FEF750FE29
:101BC0000F20FEF756FE2A20FEF753FE2820FEF7D0
:101BD00050FE0820FEF74DFE0E20FEF74AFE0820BC
:101BE000FEF747FE5420FEF744FEA920FEF741FE13
:101BF0004320FEF73EFE0A20FEF73BFE0F20FEF7D5
:101C000038FE0020FEF735FE0020FEF732FE0020F1
:101C1000FEF72FFE0020FEF72CFEE120FEF720FE4F
:101C20000020FEF726FE1520FEF723FE1720FEF704
:101C300020FE0720FEF71DFE1120FEF71AFE0620EB
:101C4000FEF717FE2B20FEF714FE5620FEF711FEBE
:101C50003C20FEF70EFE0520FEF70BFE1020FEF7DF
:101C600008FE0F20FEF705FE3F20FEF702FE3F2094
:101C7000FEF7FFFD0F20FEF7FCFD2B20FEF7F0FD29
:101C80000020FEF7F6FD0BE03C0100201C0100A047
:101C9000204C43442049443A25780D0A00000000B6
:101CA0000020FEF7E6FD0120FEF7E3FD3F20FEF7F2
:101CB000E0FD2A20FEF7D4FD0020FEF7DAFD00202B
:101CC000FEF7D7FD0020FEF7D4FDEF20FEF7D1FD93
:101CD0001120FEF7C5FD782003F020FD2920FEF736
:101CE000BFFD03F01DB9FE48808846F60401884216
:101CF0007ED11120FEF7B4FD142003F00FFDD0209B
:101D0000FEF7AEFD0720FEF7B4FD4220FEF7B1FD61
:101D10001D20FEF7AEFDD120FEF7A2FD0020FEF74C
:101D2000A8FD1A20FEF7A5FD0920FEF7A2FDD2208E
:101D3000FEF796FD0120FEF79CFD2220FEF799FD9F
:101D4000C020FEF78DFD1020FEF793FD3B20FEF72F
:101D500090FD0020FEF78DFD0220FEF78AFD112088
:101D6000FEF787FDC520FEF77BFD0320FEF781FD12
:101D7000C820FEF775FD0020FEF77BFD2520FEF74D
:101D800078FD2120FEF775FD0520FEF772FD00208D
:101D9000FEF76FFD0A20FEF76CFD6520FEF769FD7A
:101DA0002520FEF766FD7720FEF763FD5020FEF745
:101DB00060FD0F20FEF75DFD0020FEF75AFDF820C4
:101DC000FEF74EFD0120FEF754FDFE20FEF748FD14
:101DD0000020FEF74EFD0220FEF74BFD2020FEF70F
:101DE0003FFD3620FEF73CFD0820FEF742FD00E0F7
:101DF0002AE03A20FEF734FD5520FEF73AFD2B206D
:101E0000FEF72EFD0020FEF734FD0020FEF731FD29
:101E10000120FEF72EFD3F20FEF72BFD2A20FEF7C6
:101E20001FFD0020FEF725FD0020FEF722FD01200A
:101E3000FEF71FFDDF20FEF71CFD782003F06EFC8F
:101E40002920FEF70DFD4CE7A548808845F21031AA
:101E5000884240F07C87ED20FEF702FD0120FEF76E
:101E600008FDFE20FEF705FDEE20FEF7F9FCDE2062
:101E7000FEF7FFFC2120FEF7FCFCF120FEF7F0FC52
:101E80000120FEF7F6FCDF20FEF7EAFC1020FEF74B
:101E9000F0FCC420FEF7E4FC8F20FEF7EAFCC6202D
:101EA000FEF7DEFC0020FEF7E4FCE220FEF7E1FC9A
:101EB000E220FEF7DEFCE220FEF7DBFCBF20FEF7AF
:101EC000CFFCAA20FEF7D5FCB020FEF7C9FC0D2000
:101ED000FEF7CFFC0020FEF7CCFC0D20FEF7C9FC7E
:101EE0000020FEF7C6FC1120FEF7C3FC0020FEF721
:101EF000C0FC1920FEF7BDFC0020FEF7BAFC212033
:101F0000FEF7B7FC0020FEF7B4FC2D20FEF7B1FC75
:101F10000020FEF7AEFC3D20FEF7ABFC0020FEF7F4
:101F2000A8FC5D20FEF7A5FC0020FEF7A2FC5D20CA
:101F3000FEF79FFC0020FEF79CFCB120FEF790FC12
:101F40008020FEF796FC0020FEF793FC8B20FEF726
:101F500090FC0020FEF78DFC9620FEF78AFC002006
:101F6000FEF787FCB220FEF77BFC0020FEF781FC29
:101F70000020FEF77EFC0220FEF77BFC0020FEF72F
:101F800078FC0320FEF775FC0020FEF772FCB320FE
:101F9000FEF766FC0020FEF76CFC0020FEF769FCF3
:101FA0000020FEF766FC0020FEF763FC0020FEF731
:101FB00060FC0020FEF75DFC0020FEF75AFC0020CC
:101FC000FEF757FC0020FEF754FC0020FEF751FC02
:101FD0000020FEF74EFC0020FEF74BFC0020FEF731
:101FE00048FC0020FEF745FC0020FEF742FC0020E4
:101FF000FEF73FFC0020FEF73CFC0020FEF739FC1A
:102000000020FEF736FC0020FEF733FC0020FEF730
:1020100030FC0020FEF72DFC0020FEF72AFC0020FB
:10202000FEF727FCB420FEF71BFC8B20FEF721FCFB
:102030000020FEF71EFC9620FEF71BFC0020FEF79A
:1020400018FCA120FEF715FC0020FEF712FCB520BD
:10205000FEF706FC0220FEF70CFC0020FEF709FC50
:102060000320FEF706FC0020FEF703FC0420FEF729
:1020700000FC0020FEF7FDFBB620FEF7F1FB002080
:10208000FEF7F7FB0020FEF7F4FBB720FEF7E8FBB6
:102090000020FEF7EEFB0020FEF7EBFB3F20FEF7F3
:1020A000E8FB0020FEF7E5FB5E20FEF7E2FB0020E8
:1020B000FEF7DFFB6420FEF7DCFB0020FEF7D9FB18
:1020C0008C20FEF7D6FB0020FEF7D3FBAC20FEF7FA
:1020D000D0FB0020FEF7CDFBDC20FEF7CAFB01E0C1
:1020E0003C0100200020FEF7C4FB7020FEF7C1FB7E
:1020F0000020FEF7BEFB9020FEF7BBFB0020FEF7A2
:10210000B8FBEB20FEF7B5FB0020FEF7B2FBDC20AE
:10211000FEF7AFFB0020FEF7ACFBB820FEF7A0FBFC
:102120000020FEF7A6FB0020FEF7A3FB0020FEF731
:10213000A0FB0020FEF79DFB0020FEF79AFB00208D
:10214000FEF797FB0020FEF794FB0020FEF791FBC3
:10215000BA20FEF785FB2420FEF78BFB0020FEF75C
:1021600088FB0020FEF785FB0020FEF782FBC120E4
:10217000FEF776FB2020FEF77CFB0020FEF779FBC4
:102180005420FEF776FB0020FEF773FBFF20FEF7DE
:1021900070FB0020FEF76DFBC220FEF761FB0A20FA
:1021A000FEF767FB0020FEF764FB0420FEF761FBEF
:1021B0000020FEF75EFBC320FEF752FB3C20FEF73B
:1021C00058FB0020FEF755FB3A20FEF752FB00209B
:1021D000FEF74FFB3920FEF74CFB0020FEF749FBD2
:1021E0003720FEF746FB0020FEF743FB3C20FEF7BE
:1021F00040FB0020FEF73DFB3620FEF73AFB0020B7
:10220000FEF737FB3220FEF734FB0020FEF731FBF0
:102210002F20FEF72EFB0020FEF72BFB2C20FEF7D5
:1022200028FB0020FEF725FB2920FEF722FB0020DB
:10223000FEF71FFB2620FEF71CFB0020FEF719FB14
:102240002420FEF716FB0020FEF713FB2420FEF7E8
:1022500010FB0020FEF70DFB2320FEF70AFB0020F9
:10226000FEF707FB3C20FEF704FB0020FEF701FB16
:102270003620FEF7FEFA0020FEF7FBFA3220FEF7CA
:10228000F8FA0020FEF7F5FA2F20FEF7F2FA002008
:10229000FEF7EFFA2C20FEF7ECFA0020FEF7E9FA41
:1022A0002920FEF7E6FA0020FEF7E3FA2620FEF7E3
:1022B000E0FA0020FEF7DDFA2420FEF7DAFA00202B
:1022C000FEF7D7FA2420FEF7D4FA0020FEF7D1FA61
:1022D0002320FEF7CEFA0020FEF7CBFAC420FEF74B
:1022E000BFFA6220FEF7C5FA0020FEF7C2FA052009
:1022F000FEF7BFFA0020FEF7BCFA8420FEF7B9FA19
:102300000020FEF7B6FAF020FEF7B3FA0020FEF741
:10231000B0FA1820FEF7ADFA0020FEF7AAFAA420C2
:10232000FEF7A7FA0020FEF7A4FA1820FEF7A1FA9C
:102330000020FEF79EFA5020FEF79BFA0020FEF7E1
:1023400098FA0C20FEF795FA0020FEF792FA172073
:10235000FEF78FFA0020FEF78CFA9520FEF789FA37
:102360000020FEF786FAF320FEF783FA0020FEF73E
:1023700080FAE620FEF77DFA0020FEF77AFAC52003
:10238000FEF76EFA3220FEF774FA0020FEF771FABB
:102390004420FEF76EFA0020FEF76BFA6520FEF788
:1023A00068FA0020FEF765FA7620FEF762FA002050
:1023B000FEF75FFA8820FEF75CFA0020FEF759FA74
:1023C000C620FEF74DFA2020FEF753FA0020FEF754
:1023D00050FA1720FEF74DFA0020FEF74AFA0120C6
:1023E000FEF747FA0020FEF744FAC720FEF738FA56
:1023F0000020FEF73EFA0020FEF73BFA0020FEF731
:1024000038FA0020FEF735FAC820FEF729FA002036
:10241000FEF72FFA0020FEF72CFA0020FEF729FA2B
:102420000020FEF726FAC920FEF71AFA0020FEF770
:1024300020FA0020FEF71DFA0020FEF71AFA00200D
:10244000FEF717FA0020FEF714FA0020FEF711FA43
:102450000020FEF70EFA0020FEF70BFA0020FEF730
:1024600008FA0020FEF705FA0020FEF702FA002025
:10247000FEF7FFF90020FEF7FCF90020FEF7F9F95E
:102480000020FEF7F6F90020FEF7F3F9E020FEF752
:10249000E7F91620FEF7EDF90020FEF7EAF91C2017
:1024A000FEF7E7F90020FEF7E4F92120FEF7E1F955
:1024B0000020FEF7DEF93620FEF7DBF90020FEF7FC
:1024C000D8F94620FEF7D5F90020FEF7D2F95220C0
:1024D000FEF7CFF90020FEF7CCF96420FEF7C9F92A
:1024E0000020FEF7C6F97A20FEF7C3F90020FEF7B8
:1024F000C0F98B20FEF7BDF90020FEF7BAF999204C
:10250000FEF7B7F90020FEF7B4F9A820FEF7B1F9FD
:102510000020FEF7AEF9B920FEF7ABF90020FEF778
:10252000A8F9C420FEF7A5F90020FEF7A2F9CA20F9
:10253000FEF79FF90020FEF79CF9D220FEF799F9EB
:102540000020FEF796F9D920FEF793F90020FEF758
:1025500090F9E020FEF78DF90020FEF78AF9F320CC
:10256000FEF787F90020FEF784F9E120FEF778F9FD
:102570001620FEF77EF90020FEF77BF91C20FEF7FF
:1025800078F90020FEF775F92220FEF772F9002095
:10259000FEF76FF93620FEF76CF90020FEF769F9B7
:1025A0004520FEF766F90020FEF763F95220FEF79A
:1025B00060F90020FEF75DF96420FEF75AF900206B
:1025C000FEF757F97A20FEF754F90020FEF751F98B
:1025D0008B20FEF74EF90020FEF74BF99920FEF70D
:1025E00048F90020FEF745F9A820FEF742F900203F
:1025F000FEF73FF9B920FEF73CF90020FEF739F964
:10260000C420FEF736F90020FEF733F9CA20FEF7A2
:1026100030F90020FEF72DF9D220FEF72AF900202C
:10262000FEF727F9D820FEF724F90020FEF721F95C
:10263000E020FEF71EF90020FEF71BF9F320FEF75D
:1026400018F90020FEF715F9E220FEF709F9052038
:10265000FEF70FF90020FEF70CF90B20FEF709F941
:102660000020FEF706F91B20FEF703F90020FEF715
:1026700000F93420FEF7FDF80020FEF7FAF84420B8
:10268000FEF7F7F80020FEF7F4F84F20FEF7F1F818
:102690000020FEF7EEF86120FEF7EBF80020FEF7D1
:1026A000E8F87920FEF7E5F80020FEF7E2F8882048
:1026B000FEF7DFF80020FEF7DCF89720FEF7D9F8E8
:1026C0000020FEF7D6F8A620FEF7D3F80020FEF78C
:1026D000D0F8B720FEF7CDF80020FEF7CAF8C220E8
:1026E000FEF7C7F80020FEF7C4F8C720FEF7C1F8D0
:1026F0000020FEF7BEF8D120FEF7BBF80020FEF761
:10270000B8F8D620FEF7B5F80020FEF7B2F8DD20C5
:10271000FEF7AFF80020FEF7ACF8F320FEF7A9F8BB
:102720000020FEF7A6F8E320FEF79AF80520FEF752
:10273000A0F80020FEF79DF80A20FEF79AF8002086
:10274000FEF797F81C20FEF794F80020FEF791F8AA
:102750003320FEF78EF80020FEF78BF84420FEF7BA
:1027600088F80020FEF785F85020FEF782F8002058
:10277000FEF77FF86220FEF77CF80020FEF779F87C
:102780007820FEF776F80020FEF773F88820FEF731
:1027900070F80020FEF76DF89720FEF76AF8002029
:1027A000FEF767F8A620FEF764F80020FEF761F850
:1027B000B720FEF75EF80020FEF75BF8C220FEF7B8
:1027C00058F80020FEF755F8C720FEF752F8002011
:1027D000FEF74FF8D120FEF74CF80020FEF749F83D
:1027E000D520FEF746F80020FEF743F8DD20FEF77F
:1027F00040F80020FEF73DF8F320FEF73AF80020FD
:10280000FEF737F8E420FEF72BF80120FEF731F849
:102810000020FEF72EF80120FEF72BF80020FEF72F
:1028200028F80220FEF725F80020FEF722F82A20DB
:10283000FEF71FF80020FEF71CF83C20FEF719F801
:102840000020FEF716F84B20FEF713F80020FEF7E5
:1028500010F85D20FEF70DF80020FEF70AF874204E
:10286000FEF707F80020FEF704F88420FEF701F8D1
:102870000020FDF7FEFF9320FDF7FBFF0020FDF792
:10288000F8FFA220FDF7F5FF0020FDF7F2FFB320CF
:10289000FDF7EFFF0020FDF7ECFFBE20FDF7E9FF9D
:1028A0000020FDF7E6FFC420FDF7E3FF0020FDF761
:1028B000E0FFCD20FDF7DDFF0020FDF7DAFFD3209C
:1028C000FDF7D7FF0020FDF7D4FFDD20FDF7D1FF96
:1028D0000020FDF7CEFFF320FDF7CBFF0020FDF732
:1028E000C8FFE520FDF7BCFF0020FDF7C2FF002078
:1028F000FDF7BFFF0020FDF7BCFF0020FDF7B9FF8B
:102900000220FDF7B6FF0020FDF7B3FF2920FDF7F9
:10291000B0FF0020FDF7ADFF3C20FDF7AAFF00202F
:10292000FDF7A7FF4B20FDF7A4FF0020FDF7A1FF57
:102930005D20FDF79EFF0020FDF79BFF7420FDF753
:1029400098FF0020FDF795FF8420FDF792FF0020FF
:10295000FDF78FFF9320FDF78CFF0020FDF789FF27
:10296000A220FDF786FF0020FDF783FFB320FDF7CF
:1029700080FF0020FDF77DFFBE20FDF77AFF0020DD
:10298000FDF777FFC420FDF774FF0020FDF771FF0E
:10299000CD20FDF76EFF0020FDF76BFFD320FDF784
:1029A00068FF0020FDF765FFDC20FDF762FF0020D7
:1029B000FDF75FFFF320FDF75CFF0020FDF759FFF7
:1029C000E620FDF74DFF1120FDF753FF0020FDF736
:1029D00050FF3420FDF74DFF0020FDF74AFF562041
:1029E000FDF747FF0020FDF744FF7620FDF741FF8C
:1029F0000020FDF73EFF7720FDF73BFF0020FDF7AD
:102A000038FF6620FDF735FF0020FDF732FF8820F4
:102A1000FDF72FFF0020FDF72CFF9920FDF729FF80
:102A20000020FDF726FFBB20FDF723FF0020FDF768
:102A300020FF9920FDF71DFF0020FDF71AFF6620FB
:102A4000FDF717FF0020FDF714FF5520FDF711FFDC
:102A50000020FDF70EFF5520FDF70BFF0020FDF7CE
:102A600008FF4520FDF705FF0020FDF702FF43208A
:102A7000FDF7FFFE0020FDF7FCFE4420FDF7F9FE08
:102A80000020FDF7F6FEE720FDF7EAFE3220FDF715
:102A9000F0FE0020FDF7EDFE5520FDF7EAFE0020D8
:102AA000FDF7E7FE7620FDF7E4FE0020FDF7E1FEEE
:102AB0006620FDF7DEFE0020FDF7DBFE6720FDF758
:102AC000D8FE0020FDF7D5FE6720FDF7D2FE0020DE
:102AD000FDF7CFFE8720FDF7CCFE0020FDF7C9FEF5
:102AE0009920FDF7C6FE0020FDF7C3FEBB20FDF7D1
:102AF000C0FE0020FDF7BDFE9920FDF7BAFE0020C4
:102B0000FDF7B7FE7720FDF7B4FE0020FDF7B1FE1C
:102B10004420FDF7AEFE0020FDF7ABFE5620FDF78A
:102B2000A8FE0020FDF7A5FE2320FDF7A2FE002051
:102B3000FDF79FFE3320FDF79CFE0020FDF799FE78
:102B40004520FDF796FE0020FDF793FEE820FDF7F7
:102B500087FE0020FDF78DFE0020FDF78AFE9920FC
:102B6000FDF787FE0020FDF784FE8720FDF781FE3C
:102B70000020FDF77EFE8820FDF77BFE0020FDF79C
:102B800078FE7720FDF775FE0020FDF772FE6620C7
:102B9000FDF76FFE0020FDF76CFE8820FDF769FE53
:102BA0000020FDF766FEAA20FDF763FE0020FDF77A
:102BB00060FEBB20FDF75DFE0020FDF75AFE992068
:102BC000FDF757FE0020FDF754FE6620FDF751FE8D
:102BD0000020FDF74EFE5520FDF74BFE0020FDF7CF
:102BE00048FE5520FDF745FE0020FDF742FE44203B
:102BF000FDF73FFE0020FDF73CFE4420FDF739FEC7
:102C00000020FDF736FE5520FDF733FE0020FDF7CE
:102C100030FEE920FDF724FEAA20FDF72AFE002061
:102C2000FDF727FE0020FDF724FE0020FDF721FE22
:102C30000020FDF715FEAA20FDF71BFECF20FDF7B3
:102C40000FFE0020FDF715FE0020FDF712FE00200C
:102C5000FDF70FFE0020FDF70CFE0020FDF709FE3A
:102C60000020FDF706FE0020FDF703FE0020FDF723
:102C700000FE0020FDF7FDFD0020FDF7FAFD00201D
:102C8000FDF7F7FD0020FDF7F4FD0020FDF7F1FD55
:102C90000020FDF7EEFD0020FDF7EBFD0020FDF725
:102CA000E8FD0020FDF7E5FDF020FDF7D9FD00204F
:102CB000FDF7DFFD5020FDF7DCFD0020FDF7D9FD1D
:102CC0000020FDF7D6FD0020FDF7D3FDF320FDF732
:102CD000C7FD0020FDF7CDFDF920FDF7C1FD062061
:102CE000FDF7C7FD1020FDF7C4FD2920FDF7C1FD4C
:102CF0000020FDF7BEFD3A20FDF7B2FD5520FDF79F
:102D0000B8FD1120FDF7ACFD642002F007FD29207D
:102D1000FDF7A6FD3520FDF7A3FD0020FDF7A9FD79
:102D20005120FDF79DFDFF20FDF7A3FD5320FDF78A
:102D300097FD2C20FDF79DFD5520FDF791FD82208C
:102D4000FDF797FD2C20FDF78BFD02F0E9B8FE485A
:102D5000808845F2105188427ED155214FF4704051
:102D6000FDF799FDAA214FF20100FDF794FD5221D4
:102D70004FF20200FDF78FFD08214FF20300FDF72F
:102D80008AFD01214FF20400FDF785FD0D214FF46E
:102D90003040FDF780FD0D214BF20100FDF77BFD7A
:102DA0000D214BF20200FDF776FD34214FF4364041
:102DB000FDF771FD34214BF20160FDF76CFD34210C
:102DC0004BF20260FDF767FD0D214FF43140FDF736
:102DD00062FD0D214BF20110FDF75DFD0D214BF25F
:102DE0000210FDF758FD34214FF43740FDF753FD35
:102DF00034214BF20170FDF74EFD34214BF202708D
:102E0000FDF749FD00214FF43240FDF744FD00215C
:102E10004BF20120FDF73FFD00214BF20220FDF7B0
:102E20003AFD24214FF43840FDF735FD24214BF6BF
:102E30000100FDF730FD24214BF60200FDF72BFDCC
:102E400001214FF43F40FDF726FD0F214FF43340A1
:102E5000FDF721FD0F2100E0FEE34BF20130FDF70D
:102E60001AFD0F214BF20230FDF715FD34214FF40E
:102E70003940FDF710FD34214BF60110FDF70BFD35
:102E800034214BF60210FDF706FD08214FF43540C2
:102E9000FDF701FD08214BF20150FDF7FCFC082174
:102EA0004BF20250FDF7F7FC03214FF44240FDF7CF
:102EB000F2FC24214FF43A40FDF7EDFC24214BF6BF
:102EC0000120FDF7E8FC24214BF60220FDF7E3FC8E
:102ED00000214FF43C40FDF7DEFC78214BF6014029
:102EE000FDF7D9FC00214BF60240FDF7D4FC002190
:102EF0004FF43D40FDF7CFFC78214BF60150FDF734
:102F0000CAFC00214BF60250FDF7C5FC00214FF42E
:102F10003E40FDF7C0FC64214BF60160FDF7BBFCB1
:102F200000214FF45140FDF7B6FC33214DF2011062
:102F3000FDF7B1FC00214DF20210FDF7ACFC34218D
:102F40004DF20310FDF7A7FC00214DF20410FDF730
:102F5000A2FC3A214DF20510FDF79DFC00214DF237
:102F60000610FDF798FC4A214DF20710FDF793FC7F
:102F700000214DF20810FDF78EFC5C214DF2091086
:102F8000FDF789FC00214DF20A10FDF784FC812138
:102F90004DF20B10FDF77FFC00214DF20C10FDF7F8
:102FA0007AFCA6214DF20D10FDF775FC00214DF2C3
:102FB0000E10FDF770FCE5214DF20F10FDF76BFCD4
:102FC00001214DF21010FDF766FC13214DF2111096
:102FD000FDF761FC01214DF21210FDF75CFC54215C
:102FE0004DF21310FDF757FC01214DF21410FDF7BF
:102FF00052FC82214DF21510FDF74DFC01214DF2DE
:103000001610FDF748FCCA214DF21710FDF743FCDE
:1030100002214DF21810FDF73EFC00214DF219106F
:10302000FDF739FC02214DF21A10FDF734FC0121A5
:103030004DF21B10FDF72FFC02214DF21C10FDF785
:103040002AFC34214DF21D10FDF725FC02214DF222
:103050001E10FDF720FC67214DF21F10FDF71BFC31
:1030600002214DF22010FDF716FC84214DF22110B3
:10307000FDF711FC02214DF22210FDF70CFCA421FA
:103080004DF22310FDF707FC02214DF22410FDF74D
:1030900002FCB7214DF22510FDF7FDFB02214DF298
:1030A0002610FDF7F8FBCF214DF22710FDF7F3FBBB
:1030B00002214DF22810FDF7EEFBDE214DF2291022
:1030C000FDF7E9FB02214DF22A10FDF7E4FBF221A6
:1030D0004DF22B10FDF7DFFB02214DF22C10FDF716
:1030E000DAFBFE214DF22D10FDF7D5FB03214DF249
:1030F0002E10FDF7D0FB10214DF22F10FDF7CBFB6A
:1031000003214DF23010FDF7C6FB33214DF2311093
:10311000FDF7C1FB03214DF23210FDF7BCFB6D2121
:103120004DF23310FDF7B7FB00214FF45240FDF78D
:10313000B2FB33214DF20120FDF7ADFB00214DF232
:103140000220FDF7A8FB01E03C01002034214DF2F4
:103150000320FDF7A0FB00214DF20420FDF79BFBAF
:103160003A214DF20520FDF796FB00214DF2062095
:10317000FDF791FB4A214DF20720FDF78CFB002162
:103180004DF20820FDF787FB5C214DF20920FDF789
:1031900082FB00214DF20A20FDF77DFB81214DF2DB
:1031A0000B20FDF778FB00214DF20C20FDF773FB9F
:1031B000A6214DF20D20FDF76EFB00214DF20E20F1
:1031C000FDF769FBE5214DF20F20FDF764FB0121BE
:1031D0004DF21020FDF75FFB13214DF21120FDF79A
:1031E0005AFB01214DF21220FDF755FB54214DF2FF
:1031F0001320FDF750FB01214DF21420FDF74BFB8E
:1032000082214DF21520FDF746FB01214DF21620DB
:10321000FDF741FBCA214DF21720FDF73CFB0221CF
:103220004DF21820FDF737FB00214DF21920FDF774
:1032300032FB02214DF21A20FDF72DFB01214DF248
:103240001B20FDF728FB02214DF21C20FDF723FB7C
:1032500034214DF21D20FDF71EFB02214DF21E20F0
:10326000FDF719FB67214DF21F20FDF714FB02212A
:103270004DF22020FDF70FFB84214DF22120FDF7B8
:103280000AFB02214DF22220FDF705FBA4214DF29D
:103290002320FDF700FB02214DF22420FDF7FBFA6D
:1032A000B7214DF22520FDF7F6FA02214DF2262036
:1032B000FDF7F1FACF214DF22720FDF7ECFA0221BC
:1032C0004DF22820FDF7E7FADE214DF22920FDF727
:1032D000E2FA02214DF22A20FDF7DDFAF2214DF249
:1032E0002B20FDF7D8FA02214DF22C20FDF7D3FA5E
:1032F000FE214DF22D20FDF7CEFA03214DF22E20B6
:10330000FDF7C9FA10214DF22F20FDF7C4FA032171
:103310004DF23020FDF7BFFA33214DF23120FDF799
:10332000BAFA03214DF23220FDF7B5FA6D214DF2C4
:103330003320FDF7B0FA00214FF45340FDF7ABFA0C
:1033400033214DF20130FDF7A6FA00214DF2023093
:10335000FDF7A1FA34214DF20330FDF79CFA00216C
:103360004DF20430FDF797FA3A214DF20530FDF7A2
:1033700092FA00214DF20630FDF78DFA4A214DF206
:103380000730FDF788FA00214DF20830FDF783FA87
:103390005C214DF20930FDF77EFA00214DF20A3032
:1033A000FDF779FA81214DF20B30FDF774FA002117
:1033B0004DF20C30FDF76FFAA6214DF20D30FDF7FE
:1033C0006AFA00214DF20E30FDF765FAE5214DF263
:1033D0000F30FDF760FA01214DF21030FDF75BFA76
:1033E00013214DF21130FDF756FA01214DF2123042
:1033F000FDF751FA54214DF21330FDF74CFA01213B
:103400004DF21430FDF747FA82214DF21530FDF7E9
:1034100042FA01214DF21630FDF73DFACA214DF274
:103420001730FDF738FA02214DF21830FDF733FA64
:1034300000214DF21930FDF72EFA02214DF21A301B
:10344000FDF729FA01214DF21B30FDF724FA022184
:103450004DF21C30FDF71FFA34214DF21D30FDF7FF
:103460001AFA02214DF21E30FDF715FA67214DF2CE
:103470001F30FDF710FA02214DF22030FDF70BFA54
:1034800084214DF22130FDF706FA02214DF222305F
:10349000FDF701FAA4214DF22330FDF7FCF90221DA
:1034A0004DF22430FDF7F7F9B7214DF22530FDF745
:1034B000F2F902214DF22630FDF7EDF9CF214DF260
:1034C0002730FDF7E8F902214DF22830FDF7E3F946
:1034D000DE214DF22930FDF7DEF902214DF22A30CE
:1034E000FDF7D9F9F2214DF22B30FDF7D4F9022185
:1034F0004DF22C30FDF7CFF9FE214DF22D30FDF7C6
:10350000CAF903214DF22E30FDF7C5F910214DF215
:103510002F30FDF7C0F903214DF23030FDF7BBF934
:1035200033214DF23130FDF7B6F903214DF232303F
:10353000FDF7B1F96D214DF23330FDF7ACF9002103
:103540004FF45440FDF7A7F933214DF20140FDF748
:10355000A2F900214DF20240FDF79DF934214DF210
:103560000340FDF798F900214DF20440FDF793F96F
:103570003A214DF20540FDF78EF900214DF206404B
:10358000FDF789F94A214DF20740FDF784F9002142
:103590004DF20840FDF77FF95C214DF20940FDF73F
:1035A0007AF900214DF20A40FDF775F981214DF2BB
:1035B0000B40FDF770F900214DF20C40FDF76BF95F
:1035C000A6214DF20D40FDF766F900214DF20E40A7
:1035D000FDF761F9E5214DF20F40FDF75CF901219E
:1035E0004DF21040FDF757F913214DF21140FDF750
:1035F00052F901214DF21240FDF74DF954214DF2DF
:103600001340FDF748F901214DF21440FDF743F94D
:1036100082214DF21540FDF73EF901214DF2164091
:10362000FDF739F9CA214DF21740FDF734F90221AF
:103630004DF21840FDF72FF900214DF21940FDF72A
:103640002AF902214DF21A40FDF725F901214DF228
:103650001B40FDF720F900E004E302214DF21C407D
:10366000FDF719F934214DF21D40FDF714F902213F
:103670004DF21E40FDF70FF967214DF21F40FDF797
:103680000AF902214DF22040FDF705F984214DF29F
:103690002140FDF700F902214DF22240FDF7FBF831
:1036A000A4214DF22340FDF7F6F802214DF224400B
:1036B000FDF7F1F8B7214DF22540FDF7ECF80221B6
:1036C0004DF22640FDF7E7F8CF214DF22740FDF7F8
:1036D000E2F802214DF22840FDF7DDF8DE214DF23F
:1036E0002940FDF7D8F802214DF22A40FDF7D3F822
:1036F000F2214DF22B40FDF7CEF802214DF22C4085
:10370000FDF7C9F8FE214DF22D40FDF7C4F8032165
:103710004DF22E40FDF7BFF810214DF22F40FDF77E
:10372000BAF803214DF23040FDF7B5F833214DF2E0
:103730003140FDF7B0F803214DF23240FDF7ABF810
:103740006D214DF23340FDF7A6F800214FF45540AE
:10375000FDF7A1F833214DF20150FDF79CF800214F
:103760004DF20250FDF797F834214DF20350FDF76A
:1037700092F800214DF20450FDF78DF83A214DF2F8
:103780000550FDF788F800214DF20650FDF783F84B
:103790004A214DF20750FDF77EF800214DF2085006
:1037A000FDF779F85C214DF20950FDF774F800211E
:1037B0004DF20A50FDF76FF881214DF20B50FDF7E5
:1037C0006AF800214DF20C50FDF765F8A6214DF284
:1037D0000D50FDF760F800214DF20E50FDF75BF83B
:1037E000E5214DF20F50FDF756F801214DF2105032
:1037F000FDF751F813214DF21150FDF74CF801215E
:103800004DF21250FDF747F854214DF21350FDF7D9
:1038100042F801214DF21450FDF73DF882214DF29E
:103820001550FDF738F801214DF21650FDF733F829
:10383000CA214DF21750FDF72EF802214DF2185013
:10384000FDF729F800214DF21950FDF724F8022167
:103850004DF21A50FDF71FF801214DF21B50FDF7F4
:103860001AF802214DF21C50FDF715F834214DF2E3
:103870001D50FDF710F802214DF21E50FDF70BF818
:1038800067214DF21F50FDF706F802214DF220503E
:10389000FDF701F884214DF22150FCF7FCFF0221D5
:1038A0004DF22250FCF7F7FFA4214DF22350FCF714
:1038B000F2FF02214DF22450FCF7EDFFB7214DF24B
:1038C0002550FCF7E8FF02214DF22650FCF7E3FFFC
:1038D000CF214DF22750FCF7DEFF02214DF2285098
:1038E000FCF7D9FFDE214DF22950FCF7D4FF02216D
:1038F0004DF22A50FCF7CFFFF2214DF22B50FCF78E
:10390000CAFF02214DF22C50FCF7C5FFFE214DF2FB
:103910002D50FCF7C0FF03214DF22E50FCF7BBFFEA
:1039200010214DF22F50FCF7B6FF03214DF230501D
:10393000FCF7B1FF33214DF23150FCF7ACFF03210E
:103940004DF23250FCF7A7FF6D214DF23350FCF7DA
:10395000A2FF00214FF45640FCF79DFF33214DF2AA
:103960000160FCF798FF00214DF20260FCF793FF25
:1039700034214DF20360FCF78EFF00214DF204600C
:10398000FCF789FF3A214DF20560FCF784FF002126
:103990004DF20660FCF77FFF4A214DF20760FCF70D
:1039A0007AFF00214DF20860FCF775FF5C214DF2B3
:1039B0000960FCF770FF00214DF20A60FCF76BFF15
:1039C00081214DF20B60FCF766FF00214DF20C6087
:1039D000FCF761FFA6214DF20D60FCF75CFF0021B2
:1039E0004DF20E60FCF757FFE5214DF20F60FCF73A
:1039F00052FF01214DF21060FCF74DFF13214DF2F3
:103A00001160FCF748FF01214DF21260FCF743FF03
:103A100054214DF21360FCF73EFF01214DF214607A
:103A2000FCF739FF82214DF21560FCF734FF0121CC
:103A30004DF21660FCF72FFFCA214DF21760FCF71C
:103A40002AFF02214DF21860FCF725FF00214DF2FC
:103A50001960FCF720FF02214DF21A60FCF71BFFF2
:103A600001214DF21B60FCF716FF02214DF21C6094
:103A7000FCF711FF34214DF21D60FCF70CFF022111
:103A80004DF21E60FCF707FF67214DF21F60FCF747
:103A900002FF02214DF22060FCF7FDFE84214DF271
:103AA0002160FCF7F8FE02214DF22260FCF7F3FEE4
:103AB000A4214DF22360FCF7EEFE02214DF22460BA
:103AC000FCF7E9FEB7214DF22560FCF7E4FE022188
:103AD0004DF22660FCF7DFFECF214DF22760FCF7A8
:103AE000DAFE02214DF22860FCF7D5FEDE214DF210
:103AF0002960FCF7D0FE02214DF22A60FCF7CBFED4
:103B0000F2214DF22B60FCF7C6FE02214DF22C6033
:103B1000FCF7C1FEFE214DF22D60FCF7BCFE032137
:103B20004DF22E60FCF7B7FE10214DF22F60FCF72E
:103B3000B2FE03214DF23060FCF7ADFE33214DF2B1
:103B40003160FCF7A8FE03214DF23260FCF7A3FEC2
:103B50006D214DF23360FCF79EFE55214FF470400D
:103B6000FCF799FEAA214FF20100FCF794FE5221C6
:103B70004FF20200FCF78FFE08214FF20300FCF722
:103B80008AFE00214FF20400FCF785FECC214FF4A1
:103B90003140FCF780FE00214BF20110FCF77BFE68
:103BA00005214FF43640FCF776FE70214FF4374084
:103BB000FCF771FE70214BF20170FCF76CFE0121E5
:103BC0004FF43840FCF767FE03214BF60100FCF789
:103BD00062FE03214BF60200FCF75DFE03214BF66B
:103BE0000300FCF758FE02214FF43C40FCF753FE63
:103BF00000214BF60140FCF74EFE00214BF602403F
:103C0000FCF749FED0214FF44940FCF744FE022165
:103C10004CF60110FCF73FFE50214CF60210FCF769
:103C20003AFE50214CF60310FCF735FE50214CF6BD
:103C30000410FCF730FE00214FF45450FCF72BFE2B
:103C400055214FF46850FCF726FE4FF48850FCF7DE
:103C500007FE782001F01AFD4FF42450FCF700FE17
:103C600001F05EB9FE48808849F2253188427DD155
:103C700047F6F001E520FCF70EFE4FF480710120BD
:103C8000FCF709FE4FF4E0610220FCF704FE41F26C
:103C900030010320FCF7FFFD00210420FCF7FBFDB1
:103CA00040F202210820FCF7F6FD00210920FCF774
:103CB000F2FD00210A20FCF7EEFD00210C20FCF7AC
:103CC000EAFD00210D20FCF7E6FD00210F20FCF7A6
:103CD000E2FD00211020FCF7DEFD07211120FCF79A
:103CE000DAFD00211220FCF7D6FD00211320FCF79D
:103CF000D2FD00210720FCF7CEFD41F2906110209B
:103D0000FCF7C9FD40F227211120FCF7C4FD9D21DD
:103D10001220FCF7C0FD4FF4C8511320FCF7BBFD87
:103D200025212920FCF7B7FD0D212B20FCF7B3FD41
:103D300007213020FCF7AFFD40F203313120FCF7C2
:103D4000AAFD03213220FCF7A6FD40F20621352012
:103D5000FCF7A1FD08213620FCF79DFD40F206414D
:103D60003720FCF798FD4FF4417100E058E038200F
:103D7000FCF791FD07213920FCF78DFD40F202612F
:103D80003C20FCF788FD08213D20FCF784FD002144
:103D90005020FCF780FDEF215120FCF77CFD002135
:103DA0005220FCF778FD40F23F115320FCF773FDE1
:103DB0004FF427416020FCF76EFD01216120FCF7E4
:103DC0006AFD00216A20FCF766FD00218020FCF7D7
:103DD00062FD00218120FCF75EFD00218220FCF7BE
:103DE0005AFD00218320FCF756FD00218420FCF7BA
:103DF00052FD00218520FCF74EFD10219020FCF79C
:103E00004AFD4FF4C0619220FCF745FD40F23311AA
:103E10000720FCF740FD22210020FCF73CFD1FE7B6
:103E20008F48808849F2283188427DD141F28F0144
:103E3000EC20FCF730FD41F23421EF20FCF72BFDA4
:103E40004FF480710120FCF726FD4FF4E061022061
:103E5000FCF721FD41F230010320FCF71CFD00219D
:103E60000420FCF718FD40F202210820FCF713FDA6
:103E700000210920FCF70FFD00210A20FCF70BFDB3
:103E800001210C20FCF707FD00210D20FCF703FDAC
:103E900000210F20FCF7FFFC00211020FCF7FBFCA9
:103EA00007211120FCF7F7FC00211220FCF7F3FC9E
:103EB00000211320FCF7EFFC01210720FCF7EBFCAD
:103EC000322001F02BFC41F290411020FCF7E3FC82
:103ED00040F227211120FCF7DEFC322001F01EFC0D
:103EE0008A211220FCF7D7FC322001F017FC4FF496
:103EF000D0511320FCF7CFFC06212920FCF7CBFC86
:103F00000D212B20FCF7C7FC322001F007FC00211B
:103F10002020FCF7C0FC00212120FCF7BCFC322053
:103F200001F0FCFB002100E075E03020FCF7B3FC61
:103F300040F204613120FCF7AEFC40F20531322042
:103F4000FCF7A9FC00213520FCF7A5FC40F609414F
:103F50003620FCF7A0FC4FF401713720FCF79BFCE6
:103F600040F201313820FCF796FC40F2077139200D
:103F7000FCF791FC00213C20FCF78DFC40F60A2167
:103F80003D20FCF788FC322001F0C8FB00215020C6
:103F9000FCF781FCEF215120FCF77DFC0021522031
:103FA000FCF779FC40F23F115320FCF774FC4FF40E
:103FB00027416020FCF76FFC01216120FCF76BFCBE
:103FC00000216A20FCF767FC00218020FCF763FCDD
:103FD00000218120FCF75FFC00218220FCF75BFCC4
:103FE00000218320FCF757FC00218420FCF753FCC0
:103FF00000218520FCF74FFC10219020FCF74BFCA2
:104000004FF4C0619220FCF746FC40F233110720C8
:10401000FCF741FC24E61248808849F220318842AE
:104020007ED100210846FCF736FC4FF48071012058
:10403000FCF731FC4FF4E0610220FCF72CFC41F26C
:1040400030010320FCF727FC00210420FCF723FCAF
:1040500040F202210820FCF71EFC0021092001E0AB
:104060003C010020FCF717FC00210A20FCF713FCA0
:1040700001210C20FCF70FFC00210D20FCF70BFCAC
:1040800000210F20FCF707FC322001F047FB40F233
:1040900001110720FCF7FFFB322001F03FFB4FF43A
:1040A00086511020FCF7F7FB07211120FCF7F3FBEA
:1040B0004FF488711220FCF7EEFB4FF430611320AF
:1040C000FCF7E9FB00212920FCF7E5FB44F2100195
:1040D0002B20FCF7E0FB00215020FCF7DCFBEF215C
:1040E0005120FCF7D8FB00215220FCF7D4FB40F212
:1040F0003F115320FCF7CFFB4FF41C516020FCF71D
:10410000CAFB01216120FCF7C6FB00216A20FCF7F5
:10411000C2FB00218020FCF7BEFB0021812000E0D3
:1041200030E0FCF7B8FB00218220FCF7B4FB002153
:104130008320FCF7B0FB00218420FCF7ACFB0021BE
:104140008520FCF7A8FB10219020FCF7A4FB0021A0
:104150009220FCF7A0FB01219320FCF79CFB4FF47D
:1041600088719520FCF797FB00219720FCF793FBC3
:1041700000219820FCF78FFB40F273110720FCF719
:104180008AFB6DE5FE48808849F2313188427DD155
:1041900041F21401E720FCF77EFB4FF4807101200F
:1041A000FCF779FB4FF400710220FCF774FB41F23D
:1041B00038010320FCF76FFB40F202210820FCF7D6
:1041C0006AFB00210920FCF766FB00210A20FCF7AE
:1041D00062FB00210C20FCF75EFB00210D20FCF7A8
:1041E0005AFB00210F20FCF756FB00211020FCF7A2
:1041F00052FB07211120FCF74EFB00211220FCF797
:104200004AFB00211320FCF746FBC82001F086FA88
:1042100041F290611020FCF73EFB40F22721112073
:10422000FCF739FB322001F079FA0C211220FCF75F
:1042300032FB322001F072FA4FF400611320FCF7D8
:104240002AFB11212920FCF726FB0B212B20FCF750
:1042500022FB322001F062FA00212020FCF71BFB38
:1042600040F23F112120FCF716FB00213020FCF723
:1042700012FB4FF483713120FCF70DFB002132203B
:10428000FCF709FB4FF40171352000E064E0FCF716
:1042900002FB41F20A613620FCF7FDFA40F2077199
:1042A0003720FCF7F8FA4FF483713820FCF7F3FA63
:1042B00040F207713920FCF7EEFA40F202413C204F
:1042C000FCF7E9FA40F60F413D20FCF7E4FA002143
:1042D0005020FCF7E0FAEF215120FCF7DCFA002136
:1042E0005220FCF7D8FA40F23F115320FCF7D3FAE2
:1042F0004FF41C516020FCF7CEFA01216120FCF73D
:10430000CAFA00216A20FCF7C6FA00218020FCF7D7
:10431000C2FA00218120FCF7BEFA00218220FCF7BE
:10432000BAFA00218320FCF7B6FA00218420FCF7BA
:10433000B2FA00218520FCF7AEFA10219020FCF79C
:10434000AAFA4FF4C0619220FCF7A5FA40F23311AB
:104350000720FCF7A0FA83E48948808845F20841E9
:1043600088427DD14FF480710120FCF794FA4FF41C
:10437000E0610220FCF78FFA41F230010320FCF7E4
:104380008AFA00210420FCF786FA40F2072108206F
:10439000FCF781FA00210920FCF77DFA00210A20B0
:1043A000FCF779FA00210C20FCF775FA00210D20AA
:1043B000FCF771FA00210F20FCF76DFA142001F0D0
:1043C000ADF941F2B0611020FCF765FA012111202E
:1043D000FCF761FA01211720FCF75DFA4FF49C719C
:1043E0001220FCF758FA4FF400611320FCF753FA3F
:1043F00009212920FCF74FFA09212A20FCF74BFA62
:104400000021A420FCF747FA00215020FCF743FAD2
:10441000EF215120FCF73FFA00215220FCF73BFA34
:1044200040F23F115320FCF736FA4FF41C51602044
:10443000FCF731FA01216120FCF72DFA00216A20F6
:10444000FCF729FA00218020FCF725FA00218120C1
:10445000FCF721FA00218220FCF71DFA002100E080
:1044600024E08320FCF717FA00218420FCF713FADC
:1044700000218520FCF70FFA13219020FCF70BFA9E
:1044800000219220FCF707FA03219320FCF703FA9E
:104490004FF488719520FCF7FEF940F27311072064
:1044A000FCF7F9F9322001F039F9B8E43448808892
:1044B00041F2055188427DD100210720FCF7EBF93C
:1044C000322001F02BF94FF48E711220FCF7E3F942
:1044D0000121A420FCF7DFF90F210820FCF7DBF90C
:1044E00008210A20FCF7D7F908210D20FCF7D3F9A1
:1044F00040F207713020FCF7CEF907213120FCF79C
:10450000CAF940F203613220FCF7C5F94FF4E061CB
:104510003320FCF7C0F940F202213420FCF7BBF94C
:1045200002213520FCF7B7F941F60F713620FCF770
:10453000B2F940F207713720FCF7ADF900213820BD
:10454000FCF7A9F900213920FCF7A5F940F2077121
:104550003A20FCF7A0F900213B20FCF79CF9072149
:104560003C20FCF798F900213D20FCF794F932201B
:1045700001F0D4F801210720FCF78DF9012101E0B9
:104580003C0100201720FCF786F9322001F0C6F824
:104590004FF4BD511020FCF77EF940F21721112095
:1045A000FCF779F94FF48F711220FCF774F94FF48E
:1045B000706100E098E01320FCF76DF900212A20DB
:1045C000FCF769F90A212920FCF765F94FF49F717E
:1045D0001220FCF760F900215020FCF75CF9EF2174
:1045E0005120FCF758F900215220FCF754F940F211
:1045F0003F115320FCF74FF94FF41C516020FCF79A
:104600004AF901216120FCF746F900216A20FCF7F4
:1046100042F900218020FCF73EF900218120FCF7BF
:104620003AF900218220FCF736F900218320FCF7BB
:1046300032F900218420FCF72EF900218520FCF7B7
:104640002AF913219020FCF726F94FF440719220AB
:10465000FCF721F905219320FCF71DF90021952095
:10466000FCF719F900219720FCF715F90021982093
:10467000FCF711F94FF480710120FCF70CF94FF4AD
:10468000E0610220FCF707F941F238010320FCF752
:1046900002F900210420FCF7FEF800210C20FCF7B1
:1046A000FAF800210F20FCF7F6F800212020FCF793
:1046B000F2F800212120FCF7EEF821210720FCF779
:1046C000EAF8142001F02AF861210720FCF7E3F84A
:1046D000142001F023F840F273110720FCF7DBF8F7
:1046E000142001F01BF895E4FE4880884BF2055138
:1046F00088427CD100210846FCF7CDF8002108460D
:10470000FCF7C9F800210846FCF7C5F80021084667
:10471000FCF7C1F80121A420FCF7BDF8142000F03B
:10472000FDFF4FF41C516020FCF7B5F840F2022168
:104730000820FCF7B0F84FF405713020FCF7ABF817
:1047400043F215713120FCF7A6F840F204613220E3
:10475000FCF7A1F840F616613320FCF79CF842F212
:1047600011213420FCF797F84FF4A8513520FCF7BD
:1047700092F848F207513620FCF78DF841F20741D4
:104780003720FCF788F841F203413820FCF783F822
:1047900020213920FCF77FF81A219020FCF77BF8C4
:1047A00000211020FCF777F807211120FCF773F89F
:1047B00000211220FCF76FF800211320FCF76BF8A2
:1047C000142000F0ABFF4FF4E6611020FCF763F813
:1047D00040F237111120FCF75EF8142000F09EFF24
:1047E0004FF4DC711220FCF756F8142000E085E04D
:1047F00000F094FF4FF470611320FCF74CF8802117
:104800002A20FCF748F848212920FCF744F8142016
:1048100000F084FF4FF480710120FCF73CF84FF466
:10482000E0610220FCF737F841F238010320FCF781
:1048300032F840F202210820FCF72DF800210A206E
:10484000FCF729F800210C20FCF725F800210D20A9
:10485000FCF721F830210E20FCF71DF80021502034
:10486000FCF719F8EF215120FCF715F80021522030
:10487000FCF711F840F23F115320FCF70CF84FF40D
:104880001C516020FCF707F801216120FCF703F8B8
:1048900000216A20FBF7FFFF11219020FBF7FBFFAF
:1048A0004FF4C0619220FBF7F6FF40F202419320E3
:1048B000FBF7F1FF02219420FBF7EDFF142000F03D
:1048C0002DFF01210720FBF7E6FF142000F026FF53
:1048D00061210720FBF7DFFF40F273110720FBF790
:1048E000DAFF00212020FBF7D6FF00212120FBF773
:1048F000D2FF22210020FBF7CEFF11E37948808808
:104900004CF2055188427CD100210846FBF7C3FFD9
:1049100000210846FBF7BFFF142000F0FFFE002136
:104920000846FBF7B8FF00210846FBF7B4FF00215B
:104930000846FBF7B0FF00210846FBF7ACFF01215A
:10494000A420FBF7A8FF142000F0E8FE4FF41C5150
:104950006020FBF7A0FF40F606010820FBF79BFF55
:1049600040F203713020FBF796FF01213120FBF765
:1049700092FF04213220FBF78EFF4FF48171332028
:10498000FBF789FF4FF440713420FBF784FF40F2BE
:1049900003113520FBF77FFF1F213620FBF77BFF3C
:1049A00040F203713720FBF776FF01213820FBF737
:1049B00072FF04213920FBF76EFF15219020FBF7D1
:1049C0006AFF4FF482611020FBF765FF40F2472138
:1049D0001120FBF760FF4FF4DE711220FBF75BFF45
:1049E0004FF460611320FBF756FF782000F096FE2D
:1049F0004FF480710120FBF74EFF4FF4007102204D
:104A000000E052E0FBF747FF41F230010320FBF7E3
:104A100042FF08210A20FBF73EFF00210C20FBF794
:104A20003AFF20210E20FBF736FF00210F20FBF775
:104A300032FF00212020FBF72EFF00212120FBF771
:104A40002AFF3D212A20FBF726FF142000F066FEF6
:104A50002D212920FBF71FFF00215020FBF71BFF12
:104A60004DF2EF015120FBF716FF00215220FBF71A
:104A700012FF40F23F115320FBF70DFF0021612090
:104A8000FBF709FF00216A20FBF705FF4FF4407197
:104A90009220FBF700FF05219320FBF7FCFE4FF46B
:104AA00080710720FBF7F7FE3AE20E48808844F257
:104AB000315188427ED101210020FBF7ECFE0A2013
:104AC00000F02CFE41F228611020FBF7E4FE0E21DD
:104AD0001220FBF7E0FE40F639211320FBF7DBFE46
:104AE0000A2001E03C01002000F018FE40211120C6
:104AF000FBF7D1FE50211520FBF7CDFE0A2000F078
:104B00000DFE1E211220FBF7C6FE0A2000F006FE55
:104B10004FF4B1511020FBF7BEFE42F639211320AD
:104B2000FBF7B9FE0A2000F0F9FD4FF48071012077
:104B3000FBF7B1FE4FF440710220FBF7ACFE41F2EF
:104B400038010320FBF7A7FE40F202210820FBF703
:104B5000A2FE08210A20FBF79EFE00213020FBF771
:104B60009AFE40F202413120FBF795FE4FF483712B
:104B70003220FBF790FE40F203513320FBF78BFE0F
:104B80004FF482713420FBF786FE40F2013135206C
:104B9000FBF781FE40F207713620FBF77CFE40F206
:104BA00005313720FBF777FE4FF402713820FBF711
:104BB00072FE00E03EE040F60B713920FBF76BFE21
:104BC00002214120FBF767FE4FF41C516020FBF7E8
:104BD00062FE01216120FBF75EFE4FF4047190201C
:104BE000FBF759FE4FF485719220FBF754FE042128
:104BF0009320FBF750FE4FF48071A020FBF74BFE93
:104C000001210720FBF747FE21210720FBF743FE88
:104C100023210720FBF73FFE33210720FBF73BFE54
:104C200040F233110720FBF736FE0021A020FBF7EE
:104C300032FE75E1F748808844F2355188427CD1D4
:104C400030211520FBF727FE10219A20FBF723FEC9
:104C500020211120FBF71FFE43F228411020FBF713
:104C60001AFE02211220FBF716FE41F23801132032
:104C7000FBF711FE282000F051FD12210846FBF73A
:104C80000AFE282000F04AFD43F220411020FBF7E5
:104C900002FE43F238011320FBF7FDFD462000F031
:104CA0003DFD00213020FBF7F6FD40F202413120AE
:104CB000FBF7F1FD40F207313220FBF7ECFD4FF43A
:104CC00041713320FBF7E7FD04213420FBF7E3FDBE
:104CD00040F201413520FBF7DEFD40F2077136203E
:104CE000FBF7D9FD40F205313720FBF7D4FD4FF437
:104CF000C2613820FBF7CFFD4FF4C2613920FBF7CA
:104D0000CAFD4FF480710120FBF7C5FD4FF44071DF
:104D10000220FBF7C0FD41F230010320FBF7BBFD91
:104D200040F608010820FBF7B6FD08210A20FBF732
:104D3000B2FD4FF41C51602000E033E0FBF7ABFD07
:104D400001216120FBF7A7FD4FF49F719020FBF735
:104D5000A2FD4FF480719220FBF79DFD4FF480710E
:104D60009320FBF798FD4FF44051A020FBF793FDF3
:104D70001021A320FBF78FFD01210720FBF78BFDFE
:104D800021210720FBF787FD23210720FBF783FD67
:104D900033210720FBF77FFD40F233110720FBF79B
:104DA0007AFDBDE09B48808841F663118842F8D1C6
:104DB000E220FBF755FD1D20FBF75BFD0220FBF712
:104DC00058FD0420FBF755FD642000F05FFCE02057
:104DD000FBF746FD0120FBF74CFD0A2000F09EFC8E
:104DE000E020FBF73DFD0320FBF743FD0C2000F026
:104DF00095FC0120FBF734FD0A2000F08FFCE62033
:104E0000FBF72EFD2F20FBF734FDFF20FBF731FDD4
:104E1000FF20FBF72EFDB020FBF722FD2020FBF743
:104E200028FD0020FBF725FD0320FBF722FD40F2C3
:104E30001F30FBF71EFD0120FBF71BFD40F2DF10CA
:104E4000FBF717FD0020FBF714FDB420FBF708FD6E
:104E50000420FBF70EFD40F21F40FBF70AFD002087
:104E6000FBF707FD2E20FBF704FD0020FBF701FDFB
:104E70000020FBF7FEFC0020FBF7FBFC0020FBF70B
:104E8000F8FCB620FBF7ECFC0220FBF7F2FC4FF439
:104E90000370FBF7EEFC0020FBF7EBFC1720FBF7A1
:104EA000E8FC1520FBF7E5FC0020FBF7E2FC002006
:104EB000FBF7DFFCF020FBF7D3FC0320FBF7D9FC6A
:104EC0002920FBF7CDFCD020FBF7CAFC0020FBF724
:104ED000D0FCBE20FBF7C4FC0520FBF7CAFCFE207B
:104EE000FBF7C7FC0120FBF7C4FC0020FBF7C1FC6B
:104EF0000020FBF7BEFC0020FBF7BBFCB820FBF753
:104F0000AFFC0320FBF7B5FC0120FBF7B2FCBA2095
:104F1000FBF7A6FC0120FBF7ACFC6420FCF713F9BF
:104F20000020FCF738F901203B4908604FF6FF707C
:104F3000FCF71DFB21B000BD2DE9FC4F05460E46D8
:104F400017469846DDF82C90002001903148808863
:104F500046F60401884229D12E488079012825D1BE
:104F6000AB4635462B480088C01B401E86B24746DC
:104F700028480088A0EB0B00401E1FFA80F8002094
:104F8000244988712A2048812B20888143463A464B
:104F900031462846CDF80090FFF7CEFF01201D498D
:104FA00088712B2048812A2088811DE0781B401CB5
:104FB00080B20190344615E021462846FBF79AFC62
:104FC000FBF77BFC4FF0000A07E04FF0D840A0F859
:104FD00080900AF101001FFA80FA01988245F4DB03
:104FE000601C84B24445E7DDBDE8FC8F2DE9F84F35
:104FF00007460D4690469946DDF828B0A8EB070015
:10500000401C1FFA80FAA9EB0500401C80B20090FA
:10501000002418E03C010020BC824042281981B2E3
:105020003846FBF767FCFBF748FC002607E004FB6B
:105030000A603BF81000F8490880701C86B256459B
:10504000F5DB601C84B200988442E7DBBDE8F88F92
:105050002DE9FF4F84B081468A46002003900290DC
:105060000698A0EB09050798A0EB0A06CDF8049076
:10507000CDF800A0002D01DD012705E00DB90027C6
:1050800002E04FF0FF376D42002E02DD4FF00108C5
:1050900006E016B94FF0000802E04FF0FF38764204
:1050A000B54201DD2C4600E034464FF0000B21E014
:1050B000009A91B2019A90B2FBF775FF03982844C9
:1050C00003900298304402900398A04205DD0398B3
:1050D000001B03900198384401900298A04205DD1E
:1050E0000298001B02900098404400900BF10100D0
:1050F0001FFA80FB601C8345DADD08B0BDE8F08F45
:10510000F0B504460D4616461F462B463246294644
:105110002046FFF79DFF3B46224629462046FFF7E3
:1051200097FF3B46324639462046FFF791FF3B4604
:10513000324629463046FFF78BFFF0BD2DE9F0439C
:1051400006460F469046002445460320A0EB48093A
:105150003CE07A1B91B2321990B2FBF724FF3A1B64
:1051600091B2721990B2FBF71EFF3A1991B27219FF
:1051700090B2FBF718FF7A1991B2321990B2FBF78F
:1051800012FF7A1991B2321B90B2FBF70CFF3A1959
:1051900091B2721B90B2FBF706FF7A1B91B2321BE1
:1051A00090B2FBF700FF3A1B91B2721B90B2FBF773
:1051B000FAFE641CB9F1000F03DAA000801D8144DF
:1051C00004E0601B80000A3081446D1EAC42C0DDEB
:1051D000BDE8F0832DE9F84F80460E4617461C4681
:1051E000B3462046E31704EB5373DB1021464FEA26
:1051F000E47C04EB5C7C4FEAEC0CA4EBCC0CBCF143
:10520000000F02D04FF0010C01E04FF0000C63449E
:10521000224604EBD27C4FEA6C0C03FB0CF3DBB2AE
:105220000093A7F12000C7B2002556E00C2C07D14F
:1052300007EB4700794901EB800010F8059013E077
:10524000102C05D1764800EB071010F805900BE004
:10525000182C07D107EBC700724901EB800010F84A
:10526000059001E0BDE8F88F4FF0000A2FE009F04B
:10527000800030B16C48028831464046FBF7A1FE01
:1052800007E00A9828B96948028831464046FBF78A
:1052900098FE4FEA49604FEA1069701C86B2644874
:1052A0004088B04200DCDDE7A6EB0B00A0420AD14B
:1052B0005E4608F101001FFA80F85D48008840450D
:1052C00000DCCFE706E00AF1010000F0FF0ABAF1C6
:1052D000080FCCDB00BF681CC5B200988542A5DB77
:1052E00000BFBFE710B50246012000E050430B00AD
:1052F000A1F10104E1B2F9D110BD2DE9FF4F81B058
:10530000074691461E460E9D4FF0000A002439E0E4
:10531000301B401EC1B20A20FFF7E4FFB9FBF0F0DA
:105320000A21B0FBF1F201FB1208BAF1000F16D10D
:10533000701EA04213DDB8F1000F0ED10020AB4665
:1053400005EBDB71491001FB0471009088B22B461C
:1053500020220299FFF73EFF12E04FF0010A0020E1
:10536000AB4605EBDB71491001FB0471009088B27C
:1053700008F13001CAB22B460299FFF72BFF00BF9C
:10538000601CC4B2B442C3DB05B0BDE8F08F2DE9A8
:10539000FF4F82B0064692461F46DDE90F480020C7
:1053A000019000255CE0781B401EC1B20A20FFF787
:1053B00099FFBAFBF0F00A21B0FBF1F201FB1209F0
:1053C000019840BB781EA84236DDB9F1000F31D1FB
:1053D00008F0800078B108F00100A34604EBDB710F
:1053E000491001FB0561009088B2234630220399E1
:1053F000FFF7F0FE0EE008F00100A34604EBDB71BE
:10540000491001FB0561009088B2234620220399D0
:10541000FFF7E0FE22E00FE08000006CD29400086D
:1054200046990008369F0008180000201A00002046
:105430003C0100200120019008F00100A34604EB8C
:10544000DB71491001FB0561009088B209F1300160
:10545000CAB223460399FFF7BDFE00BF681CC5B260
:10546000BD42A0DB06B0BDE8F08F2DE9F847044649
:105470000D4690469946DDE9096704F0FF0A08EBFE
:1054800004001FFA80F809EB05001FFA80F916E006
:10549000444502DB5446A81985B24D4500DB14E0B3
:1054A000002000903A78334629462046FFF792FEC6
:1054B000304606EBD07104EB61018CB27F1C38786A
:1054C0007E2802DC38782028E2DA00BFBDE8F887C1
:1054D0001CB50121112001F07FF81C200090002054
:1054E0008DF8040003208DF8050001208DF80700D9
:1054F0006946354800F0EEFA0120009002208DF850
:1055000007006946314800F0E5FA1CBD10B50446B5
:1055100014B101202E4908702D480078002837D09A
:105520001021294800F038FB78B10821264800F006
:1055300033FB50B10421244800F02EFB28B1012197
:10554000224800F029FB012822D10A2000F0E6F8C9
:1055500000201F49087010211B4800F01DFB08B9EE
:10556000012010BD0821184800F016FB08B90220E0
:10557000F7E70421144800F00FFB08B90320F0E717
:105580000121124800F008FB01281BD10420E8E7A4
:1055900010210D4800F000FB012813D108210A4812
:1055A00000F0FAFA01280DD10421074800F0F4FABE
:1055B000012807D10121054800F0EEFA10B90120B9
:1055C000034908700020CCE70010024000000240B0
:1055D0001C0000207FB505460C460121022001F089
:1055E00044F80295ADF804400020ADF80600ADF88F
:1055F0000C0001A9164801F01AFC012211461448BA
:1056000002F0B6F80121124801F09AFC1D208DF835
:10561000000001208DF8010003208DF80200012018
:105620008DF80300684600F064F97FBD10B50121D4
:10563000074802F0B4F8012804D106480078401C5D
:10564000044908700121024802F0BAF810BD0000B8
:10565000000400400000002010B504466FF0040074
:1056600000F094F9E11704EB5171C1F3C701394A15
:1056700011701046007800EB4001C1EBC0104FF6EE
:10568000FF7101EAC0003449088010BD0146314A6B
:1056900012784A434FF0E0235A6100229A611A4679
:1056A000126942F001021A6100BF4FF0E022106956
:1056B00000F001021AB100F48032002AF5D04FF058
:1056C000E022126922F001024FF0E0231A61002269
:1056D0009A6170470146204A12884A434FF0E023FE
:1056E0005A6100229A611A46126942F001021A6157
:1056F00000BF4FF0E022106900F001021AB100F47F
:105700008032002AF5D04FF0E022126922F0010227
:105710004FF0E0231A6100229A61704770B5044689
:105720004FF4077094FBF0F0C6B24FF4077094FB8F
:10573000F0F100FB114085B205E04FF40770FFF770
:10574000C9FF701EC6B2002EF7D115B12846FFF76B
:10575000C1FF70BD1E00002020000020014600BFD8
:10576000704700BF4C4A128802F04002002AF9D06C
:10577000C2B2494B9A80704710B588B004460121E7
:10578000084600F029FF0121102000F07FFF0722CA
:105790000921424800F029FA07220A213F4800F077
:1057A00024FA4FF4C060069002208DF81C008DF89A
:1057B0001D0000208DF81E0001208DF81F0006A995
:1057C000364800F087F902940020ADF80C00ADF8DF
:1057D0000E00ADF81000ADF814000C20ADF812006A
:1057E00002A92D4801F0B3F801212B4801F037F947
:1057F000012240F22551284801F0E7F925208DF8D3
:10580000040003208DF805008DF8060001208DF8B6
:10581000070001A800F06DF808B010BD10B540F207
:1058200025511D4801F00CFA10B31B4801F046F950
:10583000C4B21B48008800F40040C8B9184800886A
:1058400000F4804060B10A2C03D000201449088085
:1058500020E01348008840F400401149088019E016
:105860000D2C06D10E48008840F480400C49088079
:1058700010E00B480088C0F30D000A490C5408489A
:105880000088401C0649088008460088C72801DDBA
:105890000020088010BD0000001001400000024000
:1058A000280000204A010020094880470948004795
:1058B000FEE7FEE7FEE7FEE7FEE7FEE7FEE7FEE7C0
:1058C000FEE7FEE704480549054A064B704700001D
:1058D000FD060008890100087802002078080020F1
:1058E000780400207804002032490143324A1160D4
:1058F000704770B5002100230F22C4781CB32E4CD2
:10590000246804F4E064C4F5E064C4F30721C1F141
:105910000404E3B20A4144789C40E1B28478144024
:1059200021430C07210E254C05786155047804F0BD
:105930001F050124AC4005786D11AD0005F1E0258F
:10594000C5F8004109E0047804F01F050124AC40CB
:105950001B4D0678761145F8264070BD194A0A405D
:105960000243154B1B1F1A60704739B1124A121DB2
:1059700012680243104B1B1D1A6006E00E4A121DEE
:10598000126882430C4B1B1D1A607047042808D113
:105990004FF0E021096941F004014FF0E02211616C
:1059A00007E04FF0E021096921F004014FF0E02207
:1059B000116170470000FA050CED00E000E400E022
:1059C00080E100E080FFFF1F10B504469848844244
:1059D00008D10121084600F06AFE0021012000F0F4
:1059E00066FE76E09348844208D10121022000F04F
:1059F0005EFE0021022000F05AFE6AE08E488442DA
:105A000008D10121042000F052FE0021042000F002
:105A10004EFE5EE08948844208D10121082000F052
:105A200046FE0021082000F042FE52E084488442F5
:105A300008D10121102000F03AFE0021102000F0D2
:105A400036FE46E07F48844208D10121202000F044
:105A50002EFE0021202000F02AFE3AE07A488442FF
:105A600008D10121402000F022FE0021402000F05A
:105A70001EFE2EE07548844208D10121802000F0EE
:105A800016FE0021802000F012FE22E070488442C1
:105A900008D10121801500F00AFE0021A01500F0B8
:105AA00006FE16E06B48844208D10121401500F043
:105AB000FEFD0021601500F0FAFD0AE06648844210
:105AC00007D10121001500F0F2FD0021201500F0A2
:105AD000EEFD10BDF0B50A4600210023002400BFF2
